:100000000C94AD000C94D5000C94D5000C94D50044
:100010000C94D5000C94D5000C94D5000C94D5000C
:100020000C94D5000C94D5000C94D5000C94D500FC
:100030000C94D5000C94D5000C94D5000C94D500EC
:100040000C94D2050C94D5000C94A0050C947A0560
:100050000C94D5000C94D5000C94D5000C94D500CC
:100060000C941C060C94D50008000000BE92244994
:10007000123EABAAAA2ABECDCCCC4C3E00000080DA
:10008000BEABAAAAAA3E00000000BF000000803F4D
:100090000000000000084178D3BB4387D1133D190D
:1000A0000E3CC3BD4282AD2B3E68EC8276BED98F3A
:1000B000E1A93E4C80EFFFBE01C4FF7F3F0000007E
:1000C00000004E414E494E495459494E46CDCCCC84
:1000D0003D0AD7233C17B7D13877CC2B329595E61C
:1000E000241FB14F0A000020410000C84200401CFC
:1000F0004620BCBE4CCA1B0E5AAEC59D7400000003
:1001000000240027002A0000000000250028002B02
:100110000000000000230026002900040404040459
:1001200004040402020202020203030303030301A4
:10013000020408102040800102040810200102047B
:10014000081020000000080002010000030407005E
:1001500000000000000000003B0711241FBECFEF8D
:10016000D8E0DEBFCDBF27E0A8E0B3E001C01D921C
:10017000A131B207E1F713E0A0E0B1E0E4EBF3E373
:1001800002C005900D92A830B107D9F710E0CDEA72
:10019000D0E004C02197FE010E94D219CC3AD107C9
:1001A000C9F70E9474070C94D8190C940000E091D0
:1001B000AC03F091AD03309729F01092A90310928F
:1001C000A80309940895CF93DF93AC01E091AE03A7
:1001D000F091AF033097F1F09091AB038091AA03B7
:1001E0009817C0F090E0292F30E02617370754F415
:1001F000D901A55FBC4F240F351FE90128812C933D
:100200009F5FF1CF1092AB036093AA03CB01DF9104
:10021000CF910994DF91CF910895AF92BF92CF9281
:10022000DF92EF92FF920F931F93CF93DF936C01B6
:100230007B018B01040F151FEB015E01AE18BF0897
:10024000C017D10759F06991D601ED91FC91019049
:10025000F081E02DC6010995892B79F7C501DF9161
:10026000CF911F910F91FF90EF90DF90CF90BF90B3
:10027000AF900895FC01538D448D252F30E0842FDD
:1002800090E0821B930B541710F0CF9608950197BE
:100290000895FC01918D828D981761F0A28DAE0FAB
:1002A000BF2FB11D5D968C91928D9F5F9F73928F32
:1002B00090E008958FEF9FEF0895FC01918D828D5E
:1002C000981731F0828DE80FF11D858D90E008952B
:1002D0008FEF9FEF0895FC01918D228D892F90E083
:1002E000805C9F4F821B91098F739927089586E642
:1002F00096E00E946B0121E0892B09F420E0822F17
:10030000089580E090E0892B29F00E947701811107
:100310000C9400000895FC01A48DA80FB92FB11D05
:10032000A35ABF4F2C91848D90E001968F7399272B
:10033000848FA689B7892C93A089B1898C91837009
:1003400080648C93938D848D981306C00288F38902
:10035000E02D80818F7D80830895EF92FF920F932F
:100360001F93CF93DF93EC0181E0888F9B8D8C8D61
:1003700098131AC0E889F989808185FF15C09FB755
:10038000F894EE89FF896083E889F9898081837018
:10039000806480839FBF81E090E0DF91CF911F91C7
:1003A0000F91FF90EF900895F62E0B8D10E00F5FE8
:1003B0001F4F0F731127E02E8C8D8E110CC00FB6BE
:1003C00007FCFACFE889F989808185FFF5CFCE0156
:1003D0000E948B01F1CFEB8DEC0FFD2FF11DE35A45
:1003E000FF4FF0829FB7F8940B8FEA89FB898081D9
:1003F0008062CFCFCF93DF93EC01888D8823B9F053
:10040000AA89BB89E889F9898C9185FD03C080811F
:1004100086FD0DC00FB607FCF7CF8C9185FFF2CF9C
:10042000808185FFEDCFCE010E948B01E9CFDF9166
:10043000CF910895833081F028F4813099F0823093
:10044000A9F008958730A9F08830C9F08430B1F45C
:10045000809180008F7D03C0809180008F77809392
:100460008000089584B58F7784BD089584B58F7D0D
:10047000FBCF8091B0008F778093B000089580917A
:10048000B0008F7DF9CFCF93DF93E9E4F1E0849161
:10049000E5E3F1E0D491E1E2F1E0C491CC23A1F0F5
:1004A00081110E941A02EC2FF0E0EE0FFF1FEF5EA9
:1004B000FE4FA591B491EC91ED2381E090E009F419
:1004C00080E0DF91CF91089580E090E0FACF1F9314
:1004D000CF93DF93282F30E0F901ED5BFE4F84913D
:1004E000F901E15DFE4FD491F901E55EFE4FC49143
:1004F000CC23A9F0162F81110E941A02EC2FF0E0F4
:10050000EE0FFF1FE95FFE4FA591B4918FB7F894EE
:10051000EC91111108C0D095DE23DC938FBFDF91E1
:10052000CF911F910895DE2BF8CFCF93DF9390E00A
:10053000FC01E15DFE4F2491855E9E4FFC0184919C
:100540008823D1F090E0880F991FFC01E350FF4F02
:10055000A591B491FC01E95FFE4FC591D491623041
:1005600071F49FB7F8943C91822F809583238C93EC
:10057000E8812E2B28839FBFDF91CF9108958FB7FD
:10058000F894EC912E2B2C938FBFF6CF3FB7F894B5
:100590008091A0039091A103A091A203B091A30325
:1005A00026B5A89B05C02F3F19F00196A11DB11DCE
:1005B0003FBFBA2FA92F982F8827BC01CD01620F0A
:1005C000711D811D911D44E0660F771F881F991FC3
:1005D0004A95D1F708958F929F92AF92BF92CF9292
:1005E000DF92EF92FF924B015C010E94C6026B0109
:1005F0007C010E94C6026C197D098E099F09683E24
:10060000734081059105A8F321E0821A9108A108A1
:10061000B10888EEC80E83E0D81EE11CF11C8114DD
:100620009104A104B10429F7FF90EF90DF90CF90DF
:10063000BF90AF909F908F9008952FB7F8946091DE
:100640009C0370919D0380919E0390919F032FBF07
:10065000089520915103260F3327331F213231058E
:10066000ECF420917503FC0190E080E0243069F007
:1006700082E00895A09151032191AC014F5C5C4F41
:10068000A40FB52FB11D2C930196861798F3809176
:100690005103680F6093510380E0089581E008954D
:1006A0001092750381E0809377031092760361E0E6
:1006B00082E10E94670261E083E10E946702E9EB48
:1006C000F0E080818E7F808380818D7F80838CE0CD
:1006D0008093B80085E48093BC0008950895E0916C
:1006E000AB038091AA03E81730F4F0E0E55FFC4F1C
:1006F000808190E008958FEF9FEF08959091AB0374
:100700008091AA032FEF3FEF981748F4E92FF0E00C
:10071000E55FFC4F208130E09F5F9093AB03C90100
:1007200008958091AA039091AB03891B990B0895BA
:10073000CF93DF93CB01EA01642F0E942903CE01FE
:10074000DF91CF910895CF93DF931F92CDB7DEB79E
:10075000698361E0CE0101960E94290381E090E067
:100760000F90DF91CF910895682F83E097E00C946C
:10077000A3030F931F93CF93DF938091640682337B
:1007800038F1809164068C3318F5C09164068FE0CF
:10079000C89FC02D1124CE5EDFE08C2F90E0209109
:1007A00064062153330BD29FA001D39F500D112417
:1007B000841795075CF489549E4FFC018081082EB4
:1007C000000C990B0E94B403CF5FE7CF1092640630
:1007D000809164068C3338F180916406863418F574
:1007E000C09164068FE0C89FC02D1124C458DFE07B
:1007F0008C2F90E0209164062B53330BD29FA001E5
:10080000D39F500D1124841795075CF48A5E9D4F89
:10081000FC018081082E000C990B0E94B403CF5F6D
:10082000E7CF1092640680916406863471F4C4EDBB
:10083000D2E08991082E000C990B0E94B403F2E0DB
:10084000C33EDF07B1F710926406809164068035DD
:1008500079F4C6EAD1E005EB11E08991082E000C8D
:10086000990B0E94B4030C171D07B9F71092640688
:10087000809164068A3051F44FE150E068E374E0FF
:1008800083E097E00E9498031092640680916406CA
:10089000843130F080916406883110F4109264063F
:1008A000DF91CF911F910F91089590E080E008951E
:1008B00061E084E00C94670261E083E00C946702DD
:1008C00061E082E00C9467028093B00381110C9484
:1008D000580460E084E00C9467028093B1038111B6
:1008E0000C945C0460E083E00C9467028093B20394
:1008F00081110C94600460E082E00C946702CF9355
:10090000809364069091AA038091AB03981709F431
:100910007AC083E097E00E947E0380936406809112
:1009200064068431D1F48091B20380930A038091EC
:10093000B103809309038091B0038093080380E0A2
:100940000E94760480E00E946D0480E00E946404AE
:1009500081E080935D041092640680916406853185
:1009600081F480910A030E947604809109030E9419
:100970006D04809108030E94640410925D0410923B
:10098000640680916406863169F580E00E947604F1
:1009900080E00E946D0480E00E946404A8956CEDE4
:1009A00075E080E090E00E94EB02C1E0C093B203EA
:1009B0000E946004C093B1030E945C04C093B00322
:1009C0000E9458044CE050E060E071E086E696E05A
:1009D0000E940D01A8956CED75E080E090E00E940A
:1009E000EB02A89580916406873181F4A89580E098
:1009F0000E94760481E08093B1030E945C0480E051
:100A00000E946404FFCF1092640689CFCF910895AD
:100A1000282F30E094E0359527959A95E1F72A3014
:100A200060F0295C261306C08F708A3040F0895C24
:100A300091E0481390E0892F0895205DF3CF805D09
:100A4000F7CFCF93DF9385ED8093BC0080912D038A
:100A500090912E03A0912F03B09130030796A11D12
:100A6000B11D23E0B695A795979587952A95D1F75F
:100A70002091BC0024FD03C01092750336C0409144
:100A80002D0350912E0360912F0370913003452B5D
:100A9000462B472B69F30097A105B10541F02AE0E9
:100AA0002A95F1F700C00197A109B109E1CF809122
:100AB0002C0391E090932B038823B9F0C091B800E8
:100AC000D091BA008091BC008A7B8093BC0060E02A
:100AD00082E10E94670260E083E10E9467020E9457
:100AE0005003D093BA00C093B800DF91CF9108951E
:100AF0000C9484171F920F920FB60F9211242F930C
:100B00003F934F935F936F937F938F939F93AF9395
:100B1000BF93EF93FF9386E696E00E948B01FF91CF
:100B2000EF91BF91AF919F918F917F916F915F9165
:100B30004F913F912F910F900FBE0F901F901895DE
:100B40001F920F920FB60F9211242F938F939F93A2
:100B5000EF93FF93E0917606F09177068081E09124
:100B60007C06F0917D0682FD1BC0908180917F06FE
:100B70008F5F8F7320918006821741F0E0917F068E
:100B8000F0E0EA59F94F958F80937F06FF91EF913E
:100B90009F918F912F910F900FBE0F901F901895DE
:100BA0008081F4CF1F920F920FB60F9211242F93D2
:100BB0003F938F939F93AF93BF9380919C039091AA
:100BC0009D03A0919E03B0919F0330919B032CE065
:100BD000230F2D3758F50496A11DB11D20939B03BB
:100BE00080939C0390939D03A0939E03B0939F03D7
:100BF0008091A0039091A103A091A203B091A303BF
:100C00000196A11DB11D8093A0039093A103A09311
:100C1000A203B093A303BF91AF919F918F913F9196
:100C20002F910F900FBE0F901F9018952FE8230F54
:100C30000596A11DB11DD2CF1F920F920FB60F9234
:100C400011242F933F934F935F936F937F938F93D1
:100C50009F93AF93BF93EF93FF938091B900887FE9
:100C6000803609F44AC0F0F5883209F4A7C018F5B7
:100C7000803109F49BC0B8F4882309F4F9C08830A6
:100C800009F494C0FF91EF91BF91AF919F918F9123
:100C90007F916F915F914F913F912F910F900FBE78
:100CA0000F901F901895883109F488C0803251F751
:100CB0008093740314C0803409F49DC040F48033E1
:100CC000B9F38833F9F68093740385ECB0C08035AE
:100CD00009F485C0883509F496C0883499F60E94D5
:100CE0002105D0CF883909F48CC038F5883729F030
:100CF00050F4883611F0803729F683E0809375032D
:100D00001092730357C0883809F47BC0803919F0FA
:100D1000803809F0B7CF80917303803208F071C03A
:100D2000E091730381E08E0F809373038091BB0089
:100D3000F0E0ED5AFC4F80833DC0803B39F0E0F499
:100D4000803A09F479C0883A09F09CCF84E0809316
:100D500075031092520310925103E091A603F09193
:100D6000A70309958091510381110FC081E0809301
:100D700051031092310309C0803C09F4A6CF883C8E
:100D800009F4A3CF883B09F07DCFE091520381E0C5
:100D90008E0F80935203F0E0EF5CFC4F80818093D4
:100DA000BB00909152038091510329C080919A0316
:100DB0008093BB0085EC8093BC0064CF9091990335
:100DC00080919803981758F5E091990381E08E0F70
:100DD00080939903F0E0E858FC4F8081E9CFE091DF
:100DE000990381E08E0F809399038091BB00F0E01E
:100DF000E858FC4F8083909199038091980398174D
:100E0000C8F285E8D8CFE091990381E08E0F8093F6
:100E100099038091BB00F0E0E858FC4F80838091FB
:100E2000770381115CCF81E08093760384EA80931D
:100E3000BC001092750326CF85EC8093BC00109205
:100E4000750380917303803230F4E0917303F0E016
:100E5000ED5AFC4F10826091730370E0E091A4039F
:100E6000F091A50383E593E00995109273030ACFEF
:100E70001092740334CFE6E6F6E01382128288EE15
:100E800093E0A0E0B0E084839583A683B78328EE47
:100E900032E03183208325EC30E03587248724EC51
:100EA00030E03787268720EC30E0318B208B21EC37
:100EB00030E0338B228B22EC30E0358B248B26EC18
:100EC00030E0378B268B118E128E138E148EE3E05A
:100ED000F7E01382128284839583A683B7838AEF17
:100EE00092E0918380830895CF93DF9300D000D068
:100EF0001F92CDB7DEB7789484B5826084BD84B587
:100F0000816084BD85B5826085BD85B5816085BD04
:100F100080916E00816080936E00109281008091BC
:100F20008100826080938100809180008160809345
:100F300080008091B10084608093B1008091B00006
:100F400081608093B00080917A00846080937A0001
:100F500080917A008D7F80937A0080917A00816001
:100F600080937A0080917A00806880937A00109252
:100F7000C10014BE0FB6F894A895809160008861F6
:100F800080936000109260000FBE1092C50089E14E
:100F90008093C40090E080E00E947C17882339F0A1
:100FA000813041F060E090E080E00E94780510928E
:100FB0005E0402C080935E041092AB031092AA03F9
:100FC0001092A9031092A8030E94500387ED90E0AD
:100FD0009093A7038093A60383EE90E09093A503DC
:100FE0008093A4038EE28093BA0089EB93E0909300
:100FF000AD038093AC038FE794E09093AF038093AD
:10100000AE03E0917606F091770682E08083E0916E
:101010007206F09173061082E0917406F0917506E5
:1010200083E3808310927E06E0917A06F0917B063E
:1010300086E08083E0917806F09179068081806176
:101040008083E0917806F0917906808188608083C2
:10105000E0917806F0917906808180688083E09144
:101060007806F091790680818F7D808362E086E04A
:101070000E94950261E082E00E94950261E083E0B7
:101080000E94950261E084E00E94950261E08FE099
:101090000E94950260E08FE00E9467020E94430276
:1010A000892B09F006C325E0298380E00E9476049D
:1010B00080E00E946D0480E00E94640464EF71E0AF
:1010C00080E090E00E94EB0231E03093B2030E9496
:1010D000600441E04093B1030E945C0451E05093EE
:1010E000B0030E94580464EF71E080E090E00E9439
:1010F000EB028981815089838111D7CF0E944302FD
:10110000892B09F0D6C286E696E00E94FA0146E0F5
:1011100050E060EA71E086E696E00E940D0145E04D
:1011200050E06BE971E086E696E00E940D0180E0F8
:101130000E9476046CED75E080E090E00E94EB0286
:1011400046E050E060EA71E086E696E00E940D011C
:1011500045E050E066E971E086E696E00E940D0108
:1011600080E00E946D046CED75E080E090E00E94EC
:10117000EB0246E050E060EA71E086E696E00E940D
:101180000D0145E050E061E971E086E696E00E94DD
:101190000D0180E00E9464046CED75E080E090E059
:1011A0000E94EB0246E050E060EA71E086E696E0DD
:1011B0000E940D0145E050E06CE871E086E696E0A3
:1011C0000E940D0191E09093B2030E9460046CEDC7
:1011D00075E080E090E00E94EB0246E050E060EABB
:1011E00071E086E696E00E940D0145E050E067E878
:1011F00071E086E696E00E940D01E1E0E093B10324
:101200000E945C046CED75E080E090E00E94EB02CF
:1012100046E050E060EA71E086E696E00E940D014B
:1012200045E050E062E871E086E696E00E940D013C
:10123000F1E0F093B0030E9458046CED75E080E09B
:1012400090E00E94EB0246E050E060EA71E086E642
:1012500096E00E940D0145E050E06DE771E086E602
:1012600096E00E940D0180E00E9476046CED75E02E
:1012700080E090E00E94EB0246E050E060EA71E01E
:1012800086E696E00E940D0145E050E068E771E0D7
:1012900086E696E00E940D0180E00E946D046CEDF0
:1012A00075E080E090E00E94EB0246E050E060EAEA
:1012B00071E086E696E00E940D0145E050E063E7AC
:1012C00071E086E696E00E940D0180E00E946404D1
:1012D0006CED75E080E090E00E94EB0246E050E0AB
:1012E00060EA71E086E696E00E940D0145E050E07C
:1012F0006EE671E086E696E00E940D0121E0209303
:10130000B2030E9460046CED75E080E090E00E9402
:10131000EB0246E050E060EA71E086E696E00E946B
:101320000D0145E050E069E671E086E696E00E9436
:101330000D0131E03093B1030E945C046CED75E067
:1013400080E090E00E94EB0246E050E060EA71E04D
:1013500086E696E00E940D0145E050E064E671E00B
:1013600086E696E00E940D0141E04093B0030E94A2
:1013700058046CED75E080E090E00E94EB0246E0DE
:1013800050E060EA71E086E696E00E940D0145E0DB
:1013900050E06FE571E086E696E00E940D0180E086
:1013A0000E9476046CED75E080E090E00E94EB0214
:1013B00046E050E060EA71E086E696E00E940D01AA
:1013C00045E050E06AE571E086E696E00E940D0196
:1013D00080E00E946D046CED75E080E090E00E947A
:1013E000EB0246E050E060EA71E086E696E00E949B
:1013F0000D0145E050E065E571E086E696E00E946B
:101400000D0180E00E9464046CED75E080E090E0E6
:101410000E94EB0246E050E060EA71E086E696E06A
:101420000E940D0145E050E060E571E086E696E03F
:101430000E940D0151E05093B2030E9460046CEDD4
:1014400075E080E090E00E94EB0246E050E060EA48
:1014500071E086E696E00E940D0145E050E06BE405
:1014600071E086E696E00E940D0181E08093B10371
:101470000E945C046CED75E080E090E00E94EB025D
:1014800046E050E060EA71E086E696E00E940D01D9
:1014900045E050E066E471E086E696E00E940D01CA
:1014A00091E09093B0030E9458046CED75E080E0E9
:1014B00090E00E94EB0246E050E060EA71E086E6D0
:1014C00096E00E940D0145E050E06CE371E086E695
:1014D00096E00E940D0180E00E9476046CED75E0BC
:1014E00080E090E00E94EB0246E050E060EA71E0AC
:1014F00086E696E00E940D0145E050E067E371E06A
:1015000086E696E00E940D0180E00E946D046CED7D
:1015100075E080E090E00E94EB0246E050E060EA77
:1015200071E086E696E00E940D0145E050E061E43E
:1015300071E086E696E00E940D0180E00E9464045E
:101540006CED75E080E090E00E94EB0246E150E037
:1015500061E271E086E696E00E940D01E1E0E09331
:10156000B2030E9460046CED75E080E090E00E94A0
:10157000EB0245E150E06CE071E086E696E00E9407
:101580000D01F1E0F093B1030E945C046CED75E095
:1015900080E090E00E94EB0221E02093B0030E94E3
:1015A00058044CE050E060E071E086E696E00E946E
:1015B0000D010E941D036B017C0144E650E05A833B
:1015C000498310E00E941D036C197D098E099F0953
:1015D000683B7B408105910508F057C0A89586E6D9
:1015E00096E00E946B01892B69F386E696E00E94E3
:1015F00049018834A1F4111116C06AE070E080E05E
:1016000090E00E94EB0286E696E00E945D0187353D
:10161000C9F686E696E00E94490111E0D3CF112376
:1016200089F2803279F2682F89819A810E94780547
:1016300089819A8101969A8389838337910569F715
:1016400031E03093B2030E94600441E04093B10363
:101650000E945C0451E05093B0030E94580464E679
:1016600070E080E090E00E94EB0280E00E9476044F
:1016700080E00E946D0480E00E94640464E873E0EE
:1016800080E090E00E94EB02DBCFE981FA81FF2746
:10169000FA83E983F981F33798F66FE389819A81B8
:1016A0000E94780529813A812F5F3F4F3A83298331
:1016B000F1CF80915C04876080935C0481E080932B
:1016C000B2030E94600491E09093B1030E945C0415
:1016D000E1E0E093B0030E94580464EF71E080E021
:1016E00090E00E94EB0284E080934B041092560439
:1016F00006EA11E024E630E03A832983F0E2FF2E87
:1017000089819A810E947C17F80180320CF474C29E
:10171000808329813A812F5F3F4F3A8329830F5F6E
:101720001F4F2337310561F762E370E080E090E0FE
:101730000E94EB0246E050E060EA71E086E696E047
:101740000E940D0145E050E06BE971E086E696E00D
:101750000E940D0180E00E94760468E270E080E063
:1017600090E00E94EB0246E050E060EA71E086E61D
:1017700096E00E940D0145E050E066E971E086E6E2
:1017800096E00E940D0180E00E946D0468E270E026
:1017900080E090E00E94EB0246E050E060EA71E0F9
:1017A00086E696E00E940D0145E050E061E971E0B7
:1017B00086E696E00E940D0180E00E94640468E2E3
:1017C00070E080E090E00E94EB0246E050E060EACA
:1017D00071E086E696E00E940D0145E050E06CE87D
:1017E00071E086E696E00E940D0131E03093B2038D
:1017F0000E94600468E270E080E090E00E94EB02EA
:1018000046E050E060EA71E086E696E00E940D0155
:1018100045E050E067E871E086E696E00E940D0141
:1018200041E04093B1030E945C0468E270E080E014
:1018300090E00E94EB0246E050E060EA71E086E64C
:1018400096E00E940D0145E050E062E871E086E616
:1018500096E00E940D0151E05093B0030E9458049D
:1018600068E270E080E090E00E94EB0246E050E029
:1018700060EA71E086E696E00E940D0145E050E0E6
:101880006DE771E086E696E00E940D0180E00E941F
:10189000760468E270E080E090E00E94EB0246E0AF
:1018A00050E060EA71E086E696E00E940D0145E0B6
:1018B00050E068E771E086E696E00E940D0180E066
:1018C0000E946D0468E270E080E090E00E94EB020C
:1018D00046E050E060EA71E086E696E00E940D0185
:1018E00045E050E063E771E086E696E00E940D0176
:1018F00080E00E94640468E270E080E090E00E9472
:10190000EB0246E050E060EA71E086E696E00E9475
:101910000D0145E050E06EE671E086E696E00E943B
:101920000D0181E08093B2030E94600468E270E0E0
:1019300080E090E00E94EB0246E050E060EA71E057
:1019400086E696E00E940D0145E050E069E671E010
:1019500086E696E00E940D0191E09093B1030E940B
:101960005C0468E270E080E090E00E94EB0246E0F8
:1019700050E060EA71E086E696E00E940D0145E0E5
:1019800050E064E671E086E696E00E940D01E1E039
:10199000E093B0030E94580464E170E080E090E0BE
:1019A0000E94EB0246E050E060EA71E086E696E0D5
:1019B0000E940D0145E050E06FE571E086E696E09B
:1019C0000E940D0180E00E94760468E270E080E0F1
:1019D00090E00E94EB0246E050E060EA71E086E6AB
:1019E00096E00E940D0145E050E06AE571E086E670
:1019F00096E00E940D0180E00E946D0468E270E0B4
:101A000080E090E00E94EB0246E050E060EA71E086
:101A100086E696E00E940D0145E050E065E571E044
:101A200086E696E00E940D0180E00E94640468E270
:101A300070E080E090E00E94EB0246E050E060EA57
:101A400071E086E696E00E940D0145E050E060E519
:101A500071E086E696E00E940D01F1E0F093B2039A
:101A60000E94600468E270E080E090E00E94EB0277
:101A700046E050E060EA71E086E696E00E940D01E3
:101A800045E050E06BE471E086E696E00E940D01CF
:101A900021E02093B1030E945C0468E270E080E0E2
:101AA00090E00E94EB0246E050E060EA71E086E6DA
:101AB00096E00E940D0145E050E066E471E086E6A4
:101AC00096E00E940D0131E03093B0030E9458046B
:101AD00068E270E080E090E00E94EB0246E050E0B7
:101AE00060EA71E086E696E00E940D0145E050E074
:101AF00061E471E086E696E00E940D0180E00E94BC
:101B0000760480E00E946D0480E00E94640460E935
:101B100071E080E090E00E94EB0246E050E060EA75
:101B200071E086E696E00E940D0145E050E06CE32E
:101B300071E086E696E00E940D0141E04093B20319
:101B40000E94600460E971E080E090E00E94EB0296
:101B500046E050E060EA71E086E696E00E940D0102
:101B600045E050E067E371E086E696E00E940D01F3
:101B700051E05093B1030E945C0460E971E080E0A1
:101B800090E00E94EB0246E150E061E271E086E6FF
:101B900096E00E940D0181E08093B0030E945804FA
:101BA00060E971E080E090E00E94EB0288E198E259
:101BB0000FB6F894A895809360000FBE90936000D4
:101BC000A89510926506809164068111ACC586E6E1
:101BD00096E00E946B01892B09F4A5C581E08093F2
:101BE000630680916206843249F086E696E00E94A0
:101BF000490180936206F5CFF0828BCD1092610689
:101C0000809375020E941D036B017C01C0925D06EA
:101C1000D0925E06E0925F06F092600680916206C6
:101C20008D3059F10E941D036C197D098E099F09A1
:101C30006C3B72408105910500F5F0916106F983D6
:101C4000FA35D8F486E696E00E946B01892B31F3D1
:101C500086E696E00E944901809362068A3219F472
:101C600029812093630639813F5F30936106E32F1A
:101C7000F0E0EB58FD4F8083D1CF81E08093650683
:101C800010917802812F012E000C990B8734910559
:101C900009F04CC080917902873441F490917A0226
:101CA000913421F41092650680935C06409165069C
:101CB0004D83411138C585E792E09A83898327EBEC
:101CC00031E0A6E1B2E0AC01C12CD12C80E00CE106
:101CD000FA019191AF01173409F05DC09C93ED2C8E
:101CE000F12C6C2D70E00E9DF0010F9DF00D112474
:101CF000EC59FB4FE60FF71F9C3219F09A3209F0AE
:101D000050C01082D394C12C8F5F9D3009F5209173
:101D10005C0690E08A3510F5273409F045C0FC01D7
:101D2000EA5EFD4F30E230830196F4CF82359105B3
:101D300009F0BCCF809179028D3409F0B7CF809142
:101D40007A02833409F0B2CF1092650682E5ACCFF7
:101D50002F5F3F4F11968A3509F0BACF80915C060C
:101D6000873409F001C18091B601873409F0FCC0C5
:101D700080916304816080936304E091630691E045
:101D800080E0E917D0F0A92FB0E0AB58BD4F2C91FF
:101D900082279F5FF6CF123509F0A1CFF90190831A
:101DA0009ECF9083C394B0CF223509F0BDCFFC0104
:101DB000E954FE4F40E24083B7CFF0E0EB58FD4FCF
:101DC000438162810E94080590915C04882309F494
:101DD00020C180915E04882369F1916090935C0436
:101DE00088E295E00E94E0146B017C0184E495E0B8
:101DF0000E94E0144B015C01C701B6010E94C218A9
:101E000010915C0464307105BCF02DEC3CEC4CE4AA
:101E10005DE3C501B4010E94E41720E030E040E238
:101E200051E40E94BB160E94C2186B3F71053CF042
:101E30001F7D0AC09E7FD2CF6FEF70E0F9CF8091F7
:101E4000DB038A30A8F7106210935C0480915C0475
:101E500090910C05903309F4A7C0209128052053D8
:101E60009091290590535AE0259F900D112490934D
:101E700049046F3F710531F02CF09FEF90934A04B5
:101E800084600AC060934A0464367105CCF790916F
:101E9000DB039B30A8F38B7F80935C0400913704B5
:101EA00010E080E695E00E94E014000F111F000F83
:101EB000111FF801ED54FC4F60837183828393837B
:101EC000E091370484E0E89FF0011124ED54FC4FC9
:101ED00020E030E04AEF53E4608171818281938198
:101EE0000E94E4170E94C91870935404609355042B
:101EF0008091DC038823A9F103EB13E060E070E03C
:101F0000CB01F80121913191419151918F010E94B2
:101F1000E4172BED33E02017310799F720E030E08C
:101F200040EA50E40E94E41720E030E040E251E44F
:101F30000E94501820E030E04AEF53E40E94E4177A
:101F40000E94C91870934704609348048091DB0392
:101F50008F5F853638F58093DB038091DB038093B8
:101F6000400482E58093B60180915C06823509F0D9
:101F7000CCC38091B601823509F0C7C38091630458
:101F8000826080936304E091630691E080E0E9174A
:101F900008F447C0A92FB0E0AB58BD4F2C91822761
:101FA0009F5FF5CF84E6D7CF846080935C048FEF8A
:101FB000809338048093390480933A0480933B04DF
:101FC00080933C0480933D0480933E0480933F04BF
:101FD000109240048093470480934804109249046F
:101FE00080934A0480934C0480934D0480934E0464
:101FF00080934F0480935004809351048093520443
:102000008093530480935404809355041092560493
:10201000A8CF1092DB0310924004946090935C046C
:10202000A0CFF090640590ED9F0D2AE0109165051A
:10203000F0EDF10F929FF00D112490915C04F531B9
:1020400008F436C1112309F433C100918004509182
:102050008104B091820440918304A0918404309162
:102060008504E090600560916105D09062057091F3
:102070006305F0934104F0EDFD0D7053F29F700D78
:1020800011247093420470ED7E0D6053729F600DB9
:1020900011246093430400535053029F500D1124A8
:1020A00050934404B0534053B29F400D11244093C9
:1020B0004504A0533053A29F300D112430934604A1
:1020C0009D7F90935C0490914B04966090934B0499
:1020D000F0E0EB58FD4F438162810E9408058823A0
:1020E00009F418C480915C0490915E04992309F46A
:1020F000E3C08E7F80935C0480919C04813409F05E
:10210000CDC39091800490538AE02090810430EDFB
:10211000230E989F200C112420918204205390912B
:1021200083049053289F900D11249B832091840455
:102130002053909185049053289F900D11249C83E7
:1021400090916005905330906105330E989F300C4C
:102150001124909162059053009163050053989F5C
:10216000000D112490ED9F0D1053989F100D112418
:10217000A091B8040A2E000CBB0BD09720E836E9DA
:1021800048E950E00E94CA196B017C01A091B90492
:102190000A2E000CBB0BD09720E432E44FE050E055
:1021A0000E94CA19C60ED71EE81EF91EA091BA04D5
:1021B0000A2E000CBB0BD0970E94CA194B015C0180
:1021C000A091BB040A2E000CBB0BD09720EA36E886
:1021D00041E050E00E94CA19860E971EA81EB91E43
:1021E0008091C104082E000C990BC097092E000C99
:1021F000AA0BBB0B880E991EAA1EBB1EA091BD0484
:102200000A2E000CBB0BD09720E137E20E94C319C5
:10221000860E971EA81EB91EA091BE040A2E000CA1
:10222000BB0BD09728EE33E00E94C319860E971E91
:10223000A81EB91EA091BF040A2E000CBB0BD0979C
:1022400024E630E00E94C319860E971EA81EB91E10
:10225000A091C0040A2E000CBB0BD0972AE030E0FE
:102260000E94C319680D791D8A1D9B1D26E030E070
:1022700040E050E00E948219C20ED31EE41EF51EFB
:102280008091D4048E3451F08335C1F4F094E094FD
:10229000D094C094C11CD11CE11CF11CF7FE15C0E8
:1022A00088279927DC018C199D09AE09BF0913C045
:1022B000926090935C040CCF81601CCFC12C52ECD7
:1022C000D52E5BEEE52E5BE0F52ED701C6018058DA
:1022D000954BA24ABA4FB0934C04A0934D049093EF
:1022E0004E0480934F04E091370444E0E49FF001F2
:1022F0001124E15FFB4FC082D182E282F382A09180
:10230000F0040A2E000CBB0BD09720E031EE45EF15
:1023100055E00E94CA194B015C01A091F1040A2EFC
:10232000000CBB0BD09720E836E948E950E00E944A
:10233000CA19860E971EA81EB91EA091F2040A2E75
:10234000000CBB0BD09720E432E44FE050E00E9439
:10235000CA19860E971EA81EB91EA091F3040A2E54
:10236000000CBB0BD0970E94CA192B013C01A09115
:10237000F4040A2E000CBB0BD09720EA36E841E0AB
:1023800050E00E94CA19460E571E681E791E8091A1
:10239000FA04082E000C990BC097092E000CAA0B0A
:1023A000BB0B480E591E6A1E7B1EA091F6040A2E16
:1023B000000CBB0BD09720E137E20E94C319460EF8
:1023C000571E681E791EA091F7040A2E000CBB0B45
:1023D000D09728EE33E00E94C319460E571E681EA0
:1023E000791EA091F8040A2E000CBB0BD09724E6AE
:1023F00030E00E94C319460E571E681E791EA09138
:10240000F9040A2E000CBB0BD0972AE030E00E94A2
:10241000C319640D751D861D971D26E030E040E050
:1024200050E00E948219820E931EA41EB51E809158
:102430000C05853451F08735A9F4B094A09490949C
:102440008094811C911CA11CB11CB7FE12C0F7FE28
:1024500018C0F094E094D094C094C11CD11CE11C2D
:10246000F11C0FC0812C42EC942E4BEEA42E4BE0BD
:10247000B42E750164015BE6D51A55E4E50A55EF03
:10248000F50AF0925004E0925104D0925204C092A6
:10249000530488E295E00E94E01426E53EE04DEE0C
:1024A0005FE30E94BB1620E030E040E85FE30E945B
:1024B000E4170E94051920E030E04AE753E40E9447
:1024C000BB162EE931E04CE950E40E9450186B0134
:1024D0007C0120E030E04FE753E40E94F818181622
:1024E0000CF086C08FEF8093560420913704822F22
:1024F00090E0FC01EB5FFB4F30910C053083880FBF
:10250000991F880F991FFC01E352FC4F8082918232
:10251000A282B3822F5F209337042A3051F41092A5
:10252000370481E08093DC0380914B0481608093C9
:102530004B047090DC03772009F4D6C0EFE0F4E0A0
:1025400060E070E0CB0120E0C190D190E190F1908B
:10255000C11432ECD3063BEEE3063BE0F30609F090
:1025600062C02F5F47E354E04E175F0769F7EAE068
:10257000F0E0E21BF1099F01032E000C440B550B08
:102580000E94A41957FD54C069017A01F0E8CF1ADE
:10259000F5EBDF0AF2EAEF0AFAEFFF0AD501C40110
:1025A000B7FE07C088279927DC0188199909AA096D
:1025B000BB0981389E4FA142BA400CF44CC03BE6A7
:1025C000931A35E4A30A35EFB30A41E084164AE2D0
:1025D000940645E7A40645E1B406E8F5E5E0F4E035
:1025E00080E09191953461F1973559F5872D29C097
:1025F00020E030E0A901C701B6010E94F81820E0F0
:1026000030E040E05FE387FD09C0C701B6010E94EA
:10261000E4170E94C2186093560467CFC701B60141
:102620000E94E317F6CF6C0D7D1D8E1D9F1D9ACF66
:10263000CC24DD247601C21AD30AE40AF50AAECF0F
:102640007D822FE034E02E173F0759F63D8133237A
:1026500011F08111DAC0EDEDF3E060E070E0CB0144
:1026600020E081909190A190B190811442EC940669
:102670004BEEA4064BE0B40609F0C2C02F5F45E064
:1026800054E04E175F0769F7EAE0F0E0E21BF1095A
:102690009F01032E000C440B550B0E94A41957FDFB
:1026A000F5C0DA01C9019B56A544B54FF092380434
:1026B000E0923904D0923A04C0923B04B0933C04B7
:1026C000A0933D0490933E0480933F048091DB03EC
:1026D0008F5F8093DB03853618F084E68093DB03FD
:1026E0008091DB03809340041093410400934204E3
:1026F0003092430420924404FB81F09345042C81E2
:102700002093460487E48093B601A895E981FA8175
:1027100020E22193FA83E9834FEC52E04E175F07E2
:10272000A9F71092D00280916304833021F461E014
:102730008FE00E9467020E944302892B09F0FEC0CD
:10274000A8950E941D0328EE33E040E050E00E946F
:102750008219643F71408105910508F0E0C060E096
:1027600082E00E94670260E083E00E94670260E00E
:1027700084E00E9467020E941D0300915F04109193
:1027800060042091610430916204601B710B820B24
:10279000930B693873418105910568F280915E045D
:1027A000882309F4C6C010925E0460E090E080E0E7
:1027B0000E947805FAE0F98360E082E00E946702F7
:1027C00062E370E080E090E00E94EB0261E082E072
:1027D0000E94670262E370E080E090E00E94EB02FA
:1027E0002981215029832111E7CF0E941D03609385
:1027F0005F047093600480936104909362049BCFA4
:10280000680D791D8A1D9B1D3ACFEDEDF3E060E068
:1028100070E0CB0120E081909190A190B190811463
:1028200032EC93063BEEA3063BE0B306B9F42F5F10
:1028300045E054E04E175F0771F7EAE0F0E0E21B75
:10284000F1099F01032E000C440B550B0E94A419A3
:1028500057FF18C03B564544554F21CFB7FE0BC01C
:102860004BE6941A45E4A40A45EFB40A680D791DB5
:102870008A1D9B1DDDCF55E9951A5AEBA50A5AE032
:10288000B50AF4CF35594A4B5A4009CF88279927C2
:10289000DC01821B930BA40BB50B08CF1092DB035A
:1028A00080915C04846080935C048FEF8093380493
:1028B0008093390480933A0480933B0480933C04D2
:1028C00080933D0480933E0480933F041092400423
:1028D00080934704809348041092490480934A04EB
:1028E00090914B049E7F90934B0480934C04809373
:1028F0004D0480934E0480934F0480935004809342
:102900005104809352048093530480935404809321
:102910005504F8CE1092DB0310924004F3CE61E030
:1029200082E00E94670261E083E00E94670261E04A
:102930001FCF81E080935E0461E038CF0E941D03C9
:1029400060935F04709360048093610490936204C9
:1029500080915D04811114C030915C043983832F10
:1029600081700E9476048981869581700E946D0431
:10297000498145FD12C042FB882780F90E9464040A
:1029800080E090E0892B09F41BC90E94770188231D
:1029900009F416C90E94000013C980915B048823C2
:1029A00039F060E084E00E94670210925B04E8CF97
:1029B00061E084E00E94670281E080935B04E0CFE5
:1029C000662777270C94E414B0E0A0E0EAEEF4E187
:1029D0000C94A3175C017B016115710519F0DB01F3
:1029E0008D939C9385010F5F1F4FF501D0818D2F33
:1029F00090E00E9434166C01892BB9F5DD32B9F5EF
:102A00000F5F1F4FD5011196DC91C1E05801F1E035
:102A1000AF1AB10843E050E06AEC70E0C5010E94D3
:102A20003D16892B69F5680182E0C80ED11C45E08E
:102A300050E065EC70E0C6010E943D16892B21F440
:102A4000680197E0C90ED11CE114F10419F0D70117
:102A5000CD92DC9260E070E080E89FEFC111FFC092
:102A600060E070E080E89FE7FAC05801BBCFDB323E
:102A700029F485010E5F1F4FF501D181C0E0C6CF5B
:102A800043E050E062EC70E0C5010E943D16892BE6
:102A9000E9F0F80110E000E020E030E0A9015F017A
:102AA000B0ED8B2E8D0E89E08815C8F19C2E6894B0
:102AB00091F88C2F8870C2FF16C0811102C00F5F81
:102AC0001F4F3196D501DC91C92DE9CFE114F104F6
:102AD00029F00E5F1F4FF7011183008360E070E063
:102AE00080EC9FE7BCC0882311F001501109A5E0DC
:102AF000B0E00E9492179B01AC01220F331F441FCC
:102B0000551F280D311D411D511D283999E93907DF
:102B1000490799E15907A8F2C6609C2ED2CFAEEFC3
:102B20008A1206C0C3FD3CC09C2E689493F8C9CF9E
:102B3000DF7DD534A9F580818D3239F4C061DF01A4
:102B40001296818162E070E006C0DF018B32C1F332
:102B5000119661E070E080535D01A61AB70A8A30D1
:102B6000F8F4E0E8CE16ECE0DE065CF4B601660FA1
:102B7000771F660F771FC60ED71ECC0CDD1CC80E44
:102B8000D11C5D01FFEFAF1ABF0A8C9180538A30D0
:102B9000A8F1C4FF03C0D194C194D1080C0D1D1D30
:102BA000C1FF09C0E114F10431F081E0A81AB108B5
:102BB000D701AD92BC92CA01B9010E945A16C370E6
:102BC000C33009F490584B015C0120E030E0A901CA
:102BD0000E945516882309F440C0C9EFD0E017FFC2
:102BE00005C0119501951109C1EED0E06E01B8E163
:102BF000CB1AD10880E2E82EF12C0FC0D501B1CF5D
:102C0000FE0125913591459154910E191F09C50179
:102C1000B4010E94BB164B015C01D501C4010E1525
:102C20001F0574F72497F594E794CC16DD06A9F7F1
:102C30008A2F880F8B2F881F8F3F49F020E030E0CC
:102C4000A901C501B4010E945516811106C082E296
:102C500090E09093100780930F07C501B401CDB7A2
:102C6000DEB7ECE00C94BF1791110C94281780325A
:102C700019F089508550C8F70895FB01DC014150D7
:102C8000504088F08D9181341CF08B350CF4805EBF
:102C9000659161341CF06B350CF4605E861B61112C
:102CA00071F3990B0895881BFCCF0E94971608F4C6
:102CB00081E00895E89409C097FB3EF490958095D3
:102CC000709561957F4F8F4F9F4F9923A9F0F92FF2
:102CD00096E9BB279395F695879577956795B79570
:102CE000F111F8CFFAF4BB0F11F460FF1BC06F5F56
:102CF0007F4F8F4F9F4F16C0882311F096E911C068
:102D0000772321F09EE8872F762F05C0662371F088
:102D100096E8862F70E060E02AF09A95660F771F9C
:102D2000881FDAF7880F9695879597F90895990F78
:102D30000008550FAA0BE0E8FEEF16161706E80785
:102D4000F907C0F012161306E407F50798F0621BA6
:102D5000730B840B950B39F40A2661F0232B242B7B
:102D6000252B21F408950A2609F4A140A6958FEF9A
:102D7000811D811D08950E94CE160C9442170E9459
:102D8000341738F00E943B1720F0952311F00C9473
:102D90002B170C94311711240C9476170E9453179B
:102DA00070F3959FC1F3950F50E0551F629FF0019E
:102DB000729FBB27F00DB11D639FAA27F00DB11DB7
:102DC000AA1F649F6627B00DA11D661F829F222740
:102DD000B00DA11D621F739FB00DA11D621F839FC7
:102DE000A00D611D221F749F3327A00D611D231F9D
:102DF000849F600D211D822F762F6A2F11249F57EB
:102E000050409AF0F1F088234AF0EE0FFF1FBB1FED
:102E1000661F771F881F91505040A9F79E3F5105AC
:102E200080F00C942B170C9476175F3FE4F3983ED8
:102E3000D4F3869577956795B795F795E7959F5F56
:102E4000C1F7FE2B880F911D9695879597F90895E8
:102E500099278827089597F99F6780E870E060E0D8
:102E600008959FEF80EC089500240A941616170623
:102E700018060906089500240A941216130614066B
:102E800005060895092E0394000C11F4882352F0CE
:102E9000BB0F40F4BF2B11F460FF04C06F5F7F4F86
:102EA0008F4F9F4F089557FD9058440F551F59F06D
:102EB0005F3F71F04795880F97FB991F61F09F3F27
:102EC00079F087950895121613061406551FF2CF50
:102ED0004695F1DF08C0161617061806991FF1CFA0
:102EE00086957105610508940895E894BB276627C7
:102EF0007727CB0197F90895F999FECF92BD81BD4F
:102F0000F89A992780B50895262FF999FECF1FBA10
:102F100092BD81BD20BD0FB6F894FA9AF99A0FBE02
:102F2000019608950E94D417A59F900DB49F900D0F
:102F3000A49F800D911D112408952F923F924F92CE
:102F40005F926F927F928F929F92AF92BF92CF9239
:102F5000DF92EF92FF920F931F93CF93DF93CDB742
:102F6000DEB7CA1BDB0B0FB6F894DEBF0FBECDBFBA
:102F700009942A88398848885F846E847D848C848B
:102F80009B84AA84B984C884DF80EE80FD800C8194
:102F90001B81AA81B981CE0FD11D0FB6F894DEBF77
:102FA0000FBECDBFED010895A29FB001B39FC00138
:102FB000A39F700D811D1124911DB29F700D811D65
:102FC0001124911D08955058BB27AA270E94FB1772
:102FD0000C9442170E94341738F00E943B1720F0DF
:102FE00039F49F3F19F426F40C9431170EF4E09550
:102FF000E7FB0C942B17E92F0E94531758F3BA17CD
:10300000620773078407950720F079F4A6F50C94FE
:1030100075170EF4E0950B2EBA2FA02D0B01B901F8
:1030200090010C01CA01A0011124FF27591B99F03E
:10303000593F50F4503E68F11A16F040A22F232F4A
:10304000342F4427585FF3CF469537952795A7959A
:10305000F0405395C9F77EF41F16BA0B620B730B41
:10306000840BBAF09150A1F0FF0FBB1F661F771FB2
:10307000881FC2F70EC0BA0F621F731F841F48F467
:10308000879577956795B795F7959E3F08F0B0CFF0
:103090009395880F08F09927EE0F979587950895D7
:1030A0000E9464180C9442170E943B1758F00E942B
:1030B000341740F029F45F3F29F00C942B1751117D
:1030C0000C9476170C9431170E94531768F39923C8
:1030D000B1F3552391F3951B550BBB27AA27621714
:1030E0007307840738F09F5F5F4F220F331F441F21
:1030F000AA1FA9F335D00E2E3AF0E0E832D0915055
:103100005040E695001CCAF72BD0FE2F29D0660F41
:10311000771F881FBB1F261737074807AB07B0E884
:1031200009F0BB0B802DBF01FF2793585F4F3AF08A
:103130009E3F510578F00C942B170C9476175F3F47
:10314000E4F3983ED4F3869577956795B795F79510
:103150009F5FC9F7880F911D9695879597F90895F8
:10316000E1E0660F771F881FBB1F62177307840794
:10317000BA0720F0621B730B840BBA0BEE1F88F7A3
:10318000E09508950E94C9186894B1110C947617BF
:1031900008950E945B1788F09F5798F0B92F9927E0
:1031A000B751B0F0E1F0660F771F881F991F1AF032
:1031B000BA95C9F714C0B13091F00E947517B1E00B
:1031C00008950C947517672F782F8827B85F39F00A
:1031D000B93FCCF3869577956795B395D9F73EF4CB
:1031E00090958095709561957F4F8F4F9F4F089573
:1031F0000E94971608F48FEF089516F00C944D195D
:103200000C94311768940C942B170E945B17A8F349
:103210009923C1F3AEF3DF93CF931F930F93FF92E4
:10322000C92FDD2788232AF02197660F771F881F73
:10323000DAF720E030E040E85FEB9FE3883920F0E8
:10324000803E38F021968F770E94E417E8E6F0E0A0
:1032500004C00E94E417E5E9F0E00E945B198B01CD
:10326000BE01EC01FB2E6F5771097595771F880B16
:10327000990B0E945C1628E132E741E35FE30E946C
:10328000CE16AF2D9801AE01FF900F911F91CF91F7
:10329000DF910E94FB170C9442179F3F31F0915031
:1032A00020F4879577956795B795880F911D96952A
:1032B000879597F90895DF93CF931F930F93FF920C
:1032C000EF92DF927B018C01689406C0DA2EEF0149
:1032D0000E94CE16FE01E894A59125913591459165
:1032E0005591A6F3EF010E94FB17FE019701A8017B
:1032F000DA9469F7DF90EF90FF900F911F91CF91D3
:10330000DF910895A1E21A2EAA1BBB1BFD010DC07F
:10331000AA1FBB1FEE1FFF1FA217B307E407F50785
:1033200020F0A21BB30BE40BF50B661F771F881F61
:10333000991F1A9469F760957095809590959B01F7
:10334000AC01BD01CF010895052E97FB1EF400943A
:103350000E94BB1957FD07D00E94821907FC03D0B9
:103360004EF40C94BB1950954095309521953F4FE4
:103370004F4F5F4F089590958095709561957F4F61
:103380008F4F9F4F08950E94D417B7FF0895821B57
:10339000930B0895B7FF0C9492170E949217821B0B
:1033A000930B0895EE0FFF1F0590F491E02D099403
:0433B000F894FFCFBF
:1033B400B56206040400000002001068B562060944
:1033C4000D0000000000FFFF0000000000001731A6
:1033D400BFB56206080600E803010001000139B523
:1033E40062060800000E30F00401FF18F00001FB33
:1033F40010F041003B91F10600011EF10500001C94
:10340400F10100FC14F00E00082BF10400FF1AF186
:103414000300FE18F10000FB12F00F00092DF00D5F
:10342400000729F00A000423F009000321F0080032
:10343400021FF00700011DF00600001BF00500FF4D
:1034440019F00300FD15F00200FC13F00100FB115C
:10345400B562060103002020202020202020202007
:103464002020202020005220202020202020202046
:103474002020202020202020202020202020202048
:103484002020202020202020202020202020202038
:103494002020202020202020202020202020202028
:1034A4002020202020202020202020202020202018
:1034B4002020202020202020202020202020202008
:1034C4002020204000002020202020202020202018
:1034D40020202020202020202020202020202020E8
:1034E40020202020202020202020202020202020D8
:1034F40020202020202020202020202020202020C8
:1035040020202020202020202020202020202020B7
:1035140020202020202020202020202020202020A7
:1035240020204000002020202020202020202020B7
:103534002020202020202020202020202020202087
:103544002020202020202020202020202020202077
:103554002020202020202020202020202020202067
:103564002020202020202020202020202020202057
:103574002020202020202020202020202020202047
:1035840020400000323032362D30372D32372E2E87
:10359400494E540000000000AD010D013A01FA014A
:1035A4006B0149015D0100000000A3039803550469
:0835B4006E0391037E036F0317
:00000001FF
