:100000000C944B010C9473010C9473010C947301C8
:100010000C9473010C9473010C9473010C94730190
:100020000C9473010C9473010C9473010C94730180
:100030000C9473010C9473010C9473010C94730170
:100040000C94C3060C9473010C9491060C946B06EB
:100050000C9473010C9473010C9473010C94730150
:100060000C940D070C94730105A84CCDB2D44EB975
:100070003836A9020C50B9918688083CA6AAAA2A4B
:10008000BE000000803F08000000BE922449123EDE
:10009000ABAAAA2ABECDCCCC4C3E00000080BEABA1
:1000A000AAAAAA3E00000000BF000000803F000096
:1000B000000000084178D3BB4387D1133D190E3CA3
:1000C000C3BD4282AD2B3E68EC8276BED98FE1A9DA
:1000D0003E4C80EFFFBE01C4FF7F3F0000000000E8
:1000E0004E414E494E495459494E46CDCCCC3D0A1D
:1000F000D7233C17B7D13877CC2B329595E6241F00
:10010000B14F0A000020410000C84200401C4620B8
:10011000BCBE4CCA1B0E5AAEC59D74000000002424
:100120000027002A0000000000250028002B00B551
:100130006206040400000002001068B56206090DA2
:100140000000000000FFFF0000000000001731BFAA
:10015000B56206080600E803010001000139B56236
:10016000060800000E30B56206010300F00401FF2E
:1001700018B56206010300F00001FB10B56206012C
:100180000300F00201FD14B56206010300F1060050
:10019000011EB56206010300F10500001CB56206F0
:1001A000010300F10100FC14B56206010300F00E2A
:1001B00000082BB56206010300F10400FF1AB562C6
:1001C00006010300F10300FE18B56206010300F109
:1001D0000000FB12B56206010300F00F00092DB507
:1001E0006206010300F00D000729B5620601030055
:1001F000F00A000423B56206010300F009000321A0
:10020000B56206010300F00800021FB56206010393
:1002100000F00700011DB56206010300F0060000B2
:100220001BB56206010300F00500FF19B562060167
:100230000300F00300FD15B56206010300F0410064
:100240003B91B56206010300F00100FB11000000C4
:10025000002300260029000404040404040404020A
:100260000202020202030303030303010204081053
:100270002040800102040810200102040810200020
:100280000000080002010000030407000000000055
:10029000000000002C0811241FBECFEFD8E0DEBF05
:1002A000CDBF27E0A2ECB2E001C01D92A030B207A2
:1002B000E1F712E0A0E0B1E0E4ECFAE302C005905F
:1002C0000D92A23CB107D9F711E0CBE4D1E004C014
:1002D0002197FE010E945A1DCA34D107C9F70E9416
:1002E00065080C94601D0C940000E0916603F09189
:1002F0006703309729F01092630310926203099408
:100300000895CF93DF93AC01E0916803F091690306
:100310003097F1F090916503809164039817C0F0D5
:1003200090E0292F30E02617370754F4D901AB535A
:10033000BD4F240F351FE90128812C939F5FF1CF1A
:100340001092650360936403CB01DF91CF91099410
:10035000DF91CF910895AF92BF92CF92DF92EF924B
:10036000FF920F931F93CF93DF936C017B018B015F
:10037000040F151FEB015E01AE18BF08C017D107AF
:1003800059F06991D601ED91FC910190F081E02D39
:10039000C6010995892B79F7C501DF91CF911F918E
:1003A0000F91FF90EF90DF90CF90BF90AF900895A6
:1003B000FC01538D448D252F30E0842F90E0821B6B
:1003C000930B541710F0CF96089501970895FC01F0
:1003D000918D828D981761F0A28DAE0FBF2FB11D48
:1003E0005D968C91928D9F5F9F73928F90E00895A0
:1003F0008FEF9FEF0895FC01918D828D981731F05A
:10040000828DE80FF11D858D90E008958FEF9FEFAD
:100410000895FC01918D228D892F90E0805C9F4F83
:10042000821B91098F739927089585E596E00E94B4
:10043000090221E0892B09F420E0822F089580E051
:1004400090E0892B29F00E94150281110C94000084
:100450000895FC01A48DA80FB92FB11DA35ABF4F59
:100460002C91848D90E001968F739927848FA689B3
:10047000B7892C93A089B1898C91837080648C9307
:10048000938D848D981306C00288F389E02D8081B6
:100490008F7D80830895EF92FF920F931F93CF93E8
:1004A000DF93EC0181E0888F9B8D8C8D98131AC0AF
:1004B000E889F989808185FF15C09FB7F894EE8996
:1004C000FF896083E889F9898081837080648083F3
:1004D0009FBF81E090E0DF91CF911F910F91FF903E
:1004E000EF900895F62E0B8D10E00F5F1F4F0F73E6
:1004F0001127E02E8C8D8E110CC00FB607FCFACFA1
:10050000E889F989808185FFF5CFCE010E94290213
:10051000F1CFEB8DEC0FFD2FF11DE35AFF4FF08271
:100520009FB7F8940B8FEA89FB8980818062CFCFD7
:10053000CF93DF93EC01888D8823B9F0AA89BB891A
:10054000E889F9898C9185FD03C0808186FD0DC005
:100550000FB607FCF7CF8C9185FFF2CF808185FF26
:10056000EDCFCE010E942902E9CFDF91CF9108950E
:10057000833081F028F4813099F08230A9F0089519
:100580008730A9F08830C9F08430B1F480918000C0
:100590008F7D03C0809180008F77809380000895C5
:1005A00084B58F7784BD089584B58F7DFBCF80910E
:1005B000B0008F778093B00008958091B0008F7D58
:1005C000F9CFCF93DF93E5E8F2E08491E1E7F2E041
:1005D000D491EDE5F2E0C491CC23A1F081110E9409
:1005E000B802EC2FF0E0EE0FFF1FE35BFD4FA5918B
:1005F000B491EC91ED2381E090E009F480E0DF918B
:10060000CF91089580E090E0FACF1F93CF93DF93CE
:10061000282F30E0F901E158FD4F8491F901E559A7
:10062000FD4FD491F901E95AFD4FC491CC23A9F0B3
:10063000162F81110E94B802EC2FF0E0EE0FFF1F81
:10064000EB5DFE4FA591B4918FB7F894EC91111129
:1006500008C0D095DE23DC938FBFDF91CF911F912F
:100660000895DE2BF8CFCF93DF9390E0FC01E5599E
:10067000FD4F2491895A9D4FFC0184918823D1F02C
:1006800090E0880F991FFC01E55EFE4FA591B491A3
:10069000FC01EB5DFE4FC591D491623071F49FB7C0
:1006A000F8943C91822F809583238C93E8812E2BA4
:1006B00028839FBFDF91CF9108958FB7F894EC9175
:1006C0002E2B2C938FBFF6CF3FB7F89480915A030F
:1006D00090915B03A0915C03B0915D0326B5A89B4C
:1006E00005C02F3F19F00196A11DB11D3FBFBA2FC4
:1006F000A92F982F8827BC01CD01620F711D811D84
:10070000911D44E0660F771F881F991F4A95D1F706
:1007100008958F929F92AF92BF92CF92DF92EF9205
:10072000FF924B015C010E9464036B017C010E94FB
:1007300064036C197D098E099F09683E7340810529
:100740009105A8F321E0821A9108A108B10888EE6A
:10075000C80E83E0D81EE11CF11C81149104A10491
:10076000B10429F7FF90EF90DF90CF90BF90AF904A
:100770009F908F9008952FB7F894609156037091D1
:10078000570380915803909159032FBF08952091EA
:100790000B03260F3327331F21323105ECF4209150
:1007A0002F03FC0190E080E0243069F082E008959E
:1007B000A0910B032191AC0145515D4FA40FB52FC2
:1007C000B11D2C930196861798F380910B03680F47
:1007D00060930B0380E0089581E0089510922F0349
:1007E00081E0809331031092300361E082E10E9446
:1007F000050361E083E10E940503E9EBF0E08081FD
:100800008E7F808380818D7F80838CE08093B80091
:1008100085E48093BC0008950895E091650380917C
:100820006403E81730F4F0E0EB53FD4F808190E073
:1008300008958FEF9FEF0895909165038091640371
:100840002FEF3FEF981748F4E92FF0E0EB53FD4FFF
:10085000208130E09F5F90936503C90108958091E6
:10086000640390916503891B990B0895CF93DF93DF
:10087000CB01EA01642F0E94C703CE01DF91CF9123
:100880000895CF93DF931F92CDB7DEB7698361E000
:10089000CE0101960E94C70381E090E00F90DF91A6
:1008A000CF910895682F82EF96E00C9441040F9346
:1008B0001F93CF93DF9380915306823328F1809169
:1008C00053068C3308F5C09153068FE0C89FC02DA6
:1008D0001124CE5EDFE08C2F90E02091530621534F
:1008E000330BD29FA001D39F500D1124841795077D
:1008F0005CF480599E4FFC018081082E000C990BFE
:100900000E945204CF5FE7CF809153068C3328F1C9
:1009100080915306863408F5C09153068FE0C89F36
:10092000C02D1124C458DFE08C2F90E02091530695
:100930002B53330BD29FA001D39F500D112484174A
:1009400095075CF481539E4FFC018081082E000CBA
:10095000990B0E945204CF5FE7CF809153068A35EE
:1009600028F180915306843608F5C09153068FE034
:10097000C89FC02D1124C654DFE08C2F90E0209139
:1009800053062955330BD29FA001D39F500D11243C
:10099000841795075CF48F5E9E4FFC018081082EC2
:1009A000000C990B0E945204CF5FE7CF8091530651
:1009B000863461F4CDE8D2E08991082E000C990BC1
:1009C0000E945204F2E0CC39DF07B1F78091530660
:1009D000803569F4C0E0D1E00FE011E08991082E84
:1009E000000C990B0E9452040C171D07B9F7809157
:1009F00053068A3041F440E250E061E274E082EF55
:100A000096E00E943604809153068B3041F44AE010
:100A100050E061E474E082EF96E00E9436041092A8
:100A20005306DF91CF911F910F91089590E080E0E0
:100A3000089561E084E00C94050361E083E00C9488
:100A4000050361E082E00C9405030F931F93CF939D
:100A5000DF93EC018C01060F171FFE01649185E501
:100A600096E00E944B0221960C171D07B1F7DF910B
:100A7000CF911F910F91089580936C0381110C9475
:100A8000190560E084E00C94050380936A038111EA
:100A90000C941D0560E083E00C94050380936B03C8
:100AA00081110C94210560E082E00C940503282F4D
:100AB00030E094E0359527959A95E1F72A3060F07B
:100AC000295C261306C08F708A3040F0895C91E063
:100AD000481390E0892F0895205DF3CF805DF7CF14
:100AE000CF93DF9385ED8093BC008091E7029091D6
:100AF000E802A091E902B091EA020796A11DB11D9A
:100B000023E0B695A795979587952A95D1F72091DB
:100B1000BC0024FD03C010922F0336C04091E702B1
:100B20005091E8026091E9027091EA02452B462B50
:100B3000472B69F30097A105B10541F02AE02A95FA
:100B4000F1F700C00197A109B109E1CF8091E60258
:100B500091E09093E5028823B9F0C091B800D0915C
:100B6000BA008091BC008A7B8093BC0060E082E187
:100B70000E94050360E083E10E9405030E94EE03EA
:100B8000D093BA00C093B800DF91CF9108950C9430
:100B9000671ACF9380935306909164038091650305
:100BA000981709F47AC082EF96E00E941C048093A3
:100BB0005306809153068431D1F480916B03809366
:100BC000C40280916A038093C30280916C03809376
:100BD000C20280E00E944E0580E00E94450580E050
:100BE0000E943C0581E080934C0410925306809152
:100BF0005306853181F48091C4020E944E05809194
:100C0000C3020E9445058091C2020E943C051092D9
:100C10004C041092530680915306863169F580E0AA
:100C20000E944E0580E00E94450580E00E943C0540
:100C3000A8956CED75E080E090E00E948903C1E02A
:100C4000C0936B030E942105C0936A030E941D0597
:100C5000C0936C030E9419054CE050E06FE271E014
:100C600085E596E00E94AB01A8956CED75E080E00B
:100C700090E00E948903A89580915306873181F402
:100C8000A89580E00E944E0581E080936A030E944F
:100C90001D0580E00E943C05FFCF1092530689CFCE
:100CA00080915306883C39F460E082E390E00E9432
:100CB000C7051092F10380915306893C41F461E02D
:100CC00082E390E00E94C70581E08093F103CF9119
:100CD00008950C945F1A1F920F920FB60F92112471
:100CE0002F933F934F935F936F937F938F939F9334
:100CF000AF93BF93EF93FF9385E596E00E9429029F
:100D0000FF91EF91BF91AF919F918F917F916F91E3
:100D10005F914F913F912F910F900FBE0F901F90B9
:100D200018951F920F920FB60F9211242F938F9345
:100D30009F93EF93FF93E0916506F09166068081A3
:100D4000E0916B06F0916C0682FD1BC09081809152
:100D50006E068F5F8F7320916F06821741F0E091CE
:100D60006E06F0E0EB5AF94F958F80936E06FF9177
:100D7000EF919F918F912F910F900FBE0F901F9029
:100D800018958081F4CF1F920F920FB60F92112405
:100D90002F933F938F939F93AF93BF93809156036D
:100DA00090915703A0915803B09159033091550386
:100DB0002CE0230F2D3758F50496A11DB11D20936B
:100DC00055038093560390935703A0935803B09311
:100DD000590380915A0390915B03A0915C03B091F9
:100DE0005D030196A11DB11D80935A0390935B038F
:100DF000A0935C03B0935D03BF91AF919F918F91DE
:100E00003F912F910F900FBE0F901F9018952FE8D4
:100E1000230F0596A11DB11DD2CF1F920F920FB6C1
:100E20000F9211242F933F934F935F936F937F9370
:100E30008F939F93AF93BF93EF93FF938091B900EC
:100E4000887F803609F44AC0F0F5883209F4A7C0DB
:100E500018F5803109F49BC0B8F4882309F4F9C06F
:100E6000883009F494C0FF91EF91BF91AF919F91A9
:100E70008F917F916F915F914F913F912F910F9043
:100E80000FBE0F901F901895883109F488C08032EA
:100E900051F780932E0314C0803409F49DC040F4B0
:100EA0008033B9F38833F9F680932E0385ECB0C014
:100EB000803509F485C0883509F496C0883499F6E0
:100EC0000E947005D0CF883909F48CC038F5883776
:100ED00029F050F4883611F0803729F683E08093AA
:100EE0002F0310922D0357C0883809F47BC0803936
:100EF00019F0803809F0B7CF80912D03803208F0C7
:100F000071C0E0912D0381E08E0F80932D038091BD
:100F1000BB00F0E0E35FFC4F80833DC0803B39F0D5
:100F2000E0F4803A09F479C0883A09F09CCF84E073
:100F300080932F0310920C0310920B03E091600337
:100F4000F0916103099580910B0381110FC081E03D
:100F500080930B031092EB0209C0803C09F4A6CFEA
:100F6000883C09F4A3CF883B09F07DCFE0910C03C6
:100F700081E08E0F80930C03F0E0E551FD4F8081FE
:100F80008093BB0090910C0380910B0329C080914A
:100F900054038093BB0085EC8093BC0064CF909198
:100FA000530380915203981758F5E091530381E061
:100FB0008E0F80935303F0E0EE5CFC4F8081E9CF0D
:100FC000E091530381E08E0F809353038091BB0027
:100FD000F0E0EE5CFC4F80839091530380915203CC
:100FE0009817C8F285E8D8CFE091530381E08E0FBF
:100FF000809353038091BB00F0E0EE5CFC4F808354
:101000008091310381115CCF81E08093300384EAC9
:101010008093BC0010922F0326CF85EC8093BC00F8
:1010200010922F0380912D03803230F4E0912D0334
:10103000F0E0E35FFC4F108260912D0370E0E091DF
:101040005E03F0915F038DE093E0099510922D030C
:101050000ACF10922E0334CFE5E5F6E01382128218
:1010600088EE93E0A0E0B0E084839583A683B78305
:1010700021EA32E03183208325EC30E03587248774
:1010800024EC30E03787268720EC30E0318B208B52
:1010900021EC30E0338B228B22EC30E0358B248B3B
:1010A00026EC30E0378B268B118E128E138E148E29
:1010B000E2EFF6E01382128284839583A683B783DE
:1010C00083EB92E0918380830895CF93DF93CDB734
:1010D000DEB72A970FB6F894DEBF0FBECDBF789467
:1010E00084B5826084BD84B5816084BD85B582602D
:1010F00085BD85B5816085BD80916E0081608093DE
:101100006E00109281008091810082608093810046
:10111000809180008160809380008091B100846024
:101120008093B1008091B00081608093B000809185
:101130007A00846080937A0080917A008D7F80931A
:101140007A0080917A00816080937A0080917A00A1
:10115000806880937A001092C10014BE0FB6F89494
:10116000A895809160008861809360001092600073
:101170000FBE1092C50089E18093C40010926503F0
:101180001092640310926303109262030E94EE03B4
:1011900085E791E0909361038093600381E891E09B
:1011A00090935F0380935E038EE28093BA0087E59D
:1011B00094E0909367038093660389EC95E09093A5
:1011C000690380936803E0916506F091660682E00A
:1011D0008083E0916106F09162061082E0916306DF
:1011E000F091640683E3808310926D06E0916906B6
:1011F000F0916A0686E08083E0916706F0916806C8
:10120000808180618083E0916706F091680680812B
:1012100088608083E0916706F0916806808180682D
:101220008083E0916706F091680680818F7D8083DE
:1012300062E086E00E94330361E082E00E943303B3
:1012400061E083E00E94330361E084E00E943303A5
:1012500061E08FE00E94330360E08FE00E940503AD
:1012600084E690E00E946906809351068F3319F05E
:1012700081320CF04EC081E080936C030E9419050E
:101280000E94BB034B015C0119821D82F12CE12CF1
:101290000E94BB03681979098A099B09683B7B4056
:1012A0008105910508F090C285E596E00E9409024B
:1012B000892B71F385E596E00E94E701182F5D8187
:1012C000513009F42FC208F426C2523009F438C252
:1012D0009981913009F451C208F441C2923009F465
:1012E0005BC25D81543610F40C949D17103281F26C
:1012F000AD81EA2EF12C612FC7010E94C705BD8187
:10130000BF5FBD83B33711F00C948B1780E00E9450
:101310003C0590E080E00E94690680934D04843093
:1013200040F062E090E080E00E94C70582E0809398
:101330004D0482E390E00E9469068093F1038230BD
:1013400088F061E082E390E00E94C70564E670E007
:1013500080E090E00E94890382E390E00E946906A9
:101360008093F1030E94E102892B09F039C285E0E4
:10137000898380E00E944E0580E00E94450580E060
:101380000E943C0564EF71E080E090E00E948903D8
:1013900091E090936B030E942105A1E0A0936A0362
:1013A0000E941D05B1E0B0936C030E94190564EF23
:1013B00071E080E090E00E948903E981E150E983D7
:1013C000E111D7CF0E94E102892B09F009C285E51E
:1013D00096E00E9498026BE070E082E492E00E9446
:1013E000250580E00E944E056CED75E080E090E000
:1013F0000E9489036BE070E087E891E00E94250578
:1014000080E00E9445056CED75E080E090E00E9470
:1014100089036BE070E08CE292E00E94250580E099
:101420000E943C056CED75E080E090E00E9489032D
:101430006BE070E081E292E00E9425050E942105A8
:101440006CED75E080E090E00E9489036BE070E055
:1014500086E192E00E9425050E941D056CED75E075
:1014600080E090E00E9489036BE070E08BE092E006
:101470000E9425050E9419056CED75E080E090E062
:101480000E9489036BE070E080E092E00E942505F5
:1014900080E00E944E056CED75E080E090E00E94D7
:1014A00089036BE070E085EF91E00E94250580E004
:1014B0000E9445056CED75E080E090E00E94890394
:1014C0006BE070E08AEE91E00E94250580E00E94CA
:1014D0003C056CED75E080E090E00E9489036BE0D4
:1014E00070E08FED91E00E9425050E9421056CEDD2
:1014F00075E080E090E00E9489036BE070E084ED8D
:1015000091E00E9425050E941D056CED75E080E0CC
:1015100090E00E9489036BE070E089EC91E00E940A
:1015200025050E9419056CED75E080E090E00E94B1
:1015300089036BE070E08EEB91E00E94250580E06E
:101540000E944E056CED75E080E090E00E948903FA
:101550006BE070E083EB91E00E94250580E00E9443
:1015600045056CED75E080E090E00E9489036BE03A
:1015700070E088EA91E00E94250580E00E943C0529
:101580006CED75E080E090E00E9489036BE070E014
:101590008DE991E00E9425050E9421056CED75E022
:1015A00080E090E00E9489036BE070E082E991E0C6
:1015B0000E9425050E941D056CED75E080E090E01D
:1015C0000E9489036BE070E087E392E00E942505AA
:1015D0000E9419056CED75E080E090E00E9489039F
:1015E0006BE070E081E791E00E94250580E00E94B9
:1015F0004E056CED75E080E090E00E9489036BE0A1
:1016000070E086E691E00E94250580E00E94450595
:101610006CED75E080E090E00E9489036BE070E083
:101620008CE791E00E94250580E00E943C056CED6E
:1016300075E080E090E00E94890366E170E080E55B
:1016400091E00E942505F1E0F0936B030E942105D3
:101650006CED75E080E090E00E94890365E170E048
:101660008BE391E00E94250521E020936A030E940C
:101670001D056CED75E080E090E00E94890331E08B
:1016800030936C030E94190500E011E044E650E03D
:101690005A834983B8E7FB2E6FEF89819A810E94B4
:1016A000C705D801FD928D01E981FA813196FA834F
:1016B000E983E337F10581F76CE070E08FE291E0B8
:1016C0000E942505F1E0F0936B030E94210521E0C3
:1016D00020936A030E941D0531E030936C030E9441
:1016E000190564E670E080E090E00E94890380E0E4
:1016F0000E944E0580E00E94450580E00E943C0566
:1017000064E873E080E090E00E948903DBCF1982F7
:1017100032E03D83BDCD81E08D83183409F4D8CD0E
:101720001D82D6CD873511F00C9490175981513018
:1017300071F3F8F05230F1F1E2E0ED830C949D1773
:10174000803211F00C9490173981313001F170F032
:10175000323069F124E62D839BCDA981AD83F1E080
:10176000F983193409F4BDCD1982BBCDB4E6BD832C
:10177000F6CFE2E0ED83F3CF1D82133411F00C9429
:10178000B617AD81A436E8F4B2E0B98381CD24E682
:101790002D831982ABCD1D821D3311F00C94B61729
:1017A0008D81843658F494E699830C94A61734E618
:1017B0003D83EFCF42E04D8319826ACD84E6898371
:1017C00097CD92E0998394CD42E74E1508F49ECDD3
:1017D00060E2C7010E94C7055FEFE51AF50AF4CF82
:1017E00080914B04876080934B0441E040936B03EE
:1017F0000E94210551E050936A030E941D0581E07B
:1018000080936C030E94190564EF71E080E090E022
:101810000E9489038091F103813009F09BC11092ED
:1018200036041092350400E011E0A4E6B0E0BA837B
:10183000A983A0E2FA2E89819A810E9469068032EA
:101840000CF48CC1F8018083E981FA813196FA8326
:10185000E9830F5F1F4FE337F10569F762E370E03B
:1018600080E090E00E9489036BE070E082E492E007
:101870000E94250580E00E944E0568E270E080E04D
:1018800090E00E9489036BE070E087E392E00E94A1
:10189000250580E00E94450568E270E080E090E068
:1018A0000E9489036BE070E08CE292E00E942505C3
:1018B00080E00E943C0568E270E080E090E00E94D9
:1018C00089036BE070E081E292E00E9425050E94AE
:1018D000210568E270E080E090E00E9489036BE0FF
:1018E00070E086E192E00E9425050E941D0568E2F5
:1018F00070E080E090E00E9489036BE070E08BE094
:1019000092E00E9425050E94190568E270E080E0DF
:1019100090E00E9489036BE070E080E092E00E941A
:10192000250580E00E944E0568E270E080E090E0CE
:101930000E9489036BE070E085EF91E00E9425052D
:1019400080E00E94450568E270E080E090E00E943F
:1019500089036BE070E08AEE91E00E94250580E04B
:101960000E943C0568E270E080E090E00E948903FC
:101970006BE070E08FED91E00E9425050E9421054B
:1019800068E270E080E090E00E9489036BE070E024
:1019900084ED91E00E9425050E941D0568E270E03B
:1019A00080E090E00E9489036BE070E089EC91E0B8
:1019B0000E9425050E94190564E170E080E090E036
:1019C0000E9489036BE070E08EEB91E00E94250598
:1019D00080E00E944E0568E270E080E090E00E94A6
:1019E00089036BE070E083EB91E00E94250580E0C5
:1019F0000E94450568E270E080E090E00E94890363
:101A00006BE070E088EA91E00E94250580E00E948A
:101A10003C0568E270E080E090E00E9489036BE0A2
:101A200070E08DE991E00E9425050E94210568E2A1
:101A300070E080E090E00E9489036BE070E082E952
:101A400091E00E9425050E941D0568E270E080E09B
:101A500090E00E9489036BE070E087E891E00E94CB
:101A600025050E94190568E270E080E090E00E9480
:101A700089036BE070E08CE791E00E94250580E02F
:101A80000E944E0580E00E94450580E00E943C05D2
:101A900060E971E080E090E00E9489036BE070E013
:101AA00081E791E00E942505F1E0F0936B030E942D
:101AB000210560E971E080E090E00E9489036BE01D
:101AC00070E086E691E00E94250521E020936A03FC
:101AD0000E941D0560E971E080E090E00E948903AA
:101AE00066E170E080E591E00E94250531E03093E9
:101AF0006C030E94190560E971E080E090E00E94AB
:101B0000890388E198E20FB6F894A8958093600065
:101B10000FBE90936000FAE02F2E312CA895109202
:101B20005406809153068111AFC185E596E00E946D
:101B30000902892B09F4A8C181E0809352068091A3
:101B40005106843271F085E596E00E94E7018093AA
:101B50005106F5CF80EC8093360463CED801FC9219
:101B600073CE1092500680932E020E94BB036B012D
:101B70007C01C0924C06D0924D06E0924E06F09247
:101B80004F06809151068D3059F10E94BB036C19AC
:101B90007D098E099F096C3B72408105910500F516
:101BA0005091500659835A35D8F485E596E00E9445
:101BB0000902892B31F385E596E00E94E7018093C5
:101BC00051068A3219F4998190935206A981AF5F28
:101BD000A0935006EA2FF0E0E25DFD4F8083D1CF65
:101BE00081E08093540680913102082E000C990BFD
:101BF0008734910509F050C080913202873411F08A
:101C00000C94BD1790913302913409F453C0C090E5
:101C10005406C11039C120914B06EEE2F2E0FE837A
:101C2000ED8381E090E0198210E00CE13191DC015C
:101C3000A253BE4F273451F0DC01A159BE4F2D34C1
:101C400029F0233521F4DC01A05FBE4F3C93A12F86
:101C5000B0E04981642F70E00A9FA0010B9F500DF6
:101C600011244D5A5B4F460F571FDA013C3219F0D1
:101C70003A3209F04EC01C921F5F19823D30F9F4D0
:101C80008A3510F5273409F049C0FC01E153FE4FB5
:101C900030E230830196F4CF8235910509F0F4C02B
:101CA000809132028D3409F0EFC090913302933469
:101CB00009F0EAC01092540680934B06A8CF019613
:101CC0008B35910509F0B2CF2D3409F49CC1233531
:101CD00009F4C3C5273409F0C9C0809110018734C5
:101CE00009F0C4C01092F3031092F20380915204E1
:101CF000816080935204E091520691E080E0E91700
:101D0000F0F0A92FB0E0A25DBD4F2C9182279F5F1C
:101D1000F6CF3C93B981BF5FB983B0CF2D3431F496
:101D2000FC01E059FE4F40E24083B4CF233509F077
:101D3000B1CFFC01EF5EFE4F50E25083ABCFF0E03D
:101D4000E25DFD4F438162810E945705882309F4BB
:101D500050C180914D04811107C180914B04816075
:101D600080934B0490913604907F8091FB048033E4
:101D700009F404C120911705205380911805805360
:101D8000AAE02A9F800D112480932004892B809340
:101D900036040091F00310E08FE495E00E94C31731
:101DA000000F111F000F111FF801E359FC4F608352
:101DB000718382839383E091F003B4E0EB9FF001A1
:101DC0001124E359FC4F20E030E04AEF53E46081F6
:101DD0007181828193810E94C71A0E94B11B609316
:101DE000F2037093F30370933F0460934004809177
:101DF00095038823C1F10DE613E060E070E0CB01AC
:101E0000F80121913191419151918F010E94C71A9E
:101E100025E933E02017310799F720E030E040EA68
:101E200050E40E94C71A20E030E040E251E40E94F2
:101E3000381B20E030E04AEF53E40E94C71A0E94AA
:101E4000B11B709330046093310480911F048F5F45
:101E500080931F04853618F084E680931F048091D8
:101E60001F048093290483E580931001A895AD8118
:101E7000BE81E0E2ED93BE83AD8328E832E02A170D
:101E80003B07A9F71092890280915204833021F414
:101E900061E08FE00E9405030E94E102892B11F0AE
:101EA0000C944617A8950E94BB0328EE33E040E04F
:101EB00050E00E940A1D643F71408105910508F0C1
:101EC000D8C760E082E00E94050360E083E00E94E2
:101ED000050360E084E00E9405030E94BB030091BB
:101EE0004E0410914F042091500430915104601B16
:101EF000710B820B930B693873418105910560F278
:101F000080914D048F5F843009F4BDC780934D04E8
:101F100060914D0490E080E00E94C7055AE059832B
:101F200060E082E00E94050362E370E080E090E000
:101F30000E94890361E082E00E94050362E370E091
:101F400080E090E00E94890389818150898381111A
:101F5000E7CF0E94BB0360934E0470934F048093BD
:101F600050049093510498CF813021F480914B0418
:101F70008E7FF6CE823009F4F0CEF4CE80914B0401
:101F8000846080934B048FEF80932104809322041C
:101F90008093230480932404809325048093260453
:101FA000809327048093280410922904809330049E
:101FB0008093310410923504909336048093320458
:101FC00080933304809334048093370480933804DF
:101FD0008093390480933A0480933B0480933C04BB
:101FE00080933D0480933E0480933F04809340049B
:101FF0003ACF10921F041092290480914B04846000
:1020000080934B0430CF809110018D3409F02ECF96
:1020100080915204826080935204E091520691E0D4
:1020200080E0E91740F0A92FB0E0A25DBD4F2C91F0
:1020300082279F5FF6CFF0E0E25DFD4F4381628132
:102040000E945705882309F403C490914D048091A0
:102050004B04911104C08E7F80934B0402C09330D7
:10206000D1F390916F0490538AE0F090700430EDBA
:10207000F30E989FF00C11249091710490531091DD
:1020800072041053989F100D112490917304905373
:10209000009174040053989F000D112490914F05F6
:1020A0009053E0905005E30E989FE00C112490911E
:1020B00051059053D0905205D30E989FD00C112407
:1020C0009091530590532091540540ED420F989FF5
:1020D000400D11244F8380914B04453108F4CCC04E
:1020E000222309F4C9C040932A04D0922B04E09221
:1020F0002C04F0922D0410932E0400932F048D7F56
:1021000080934B04809136048062809336048091E2
:102110008B04813409F05CC3A091A7040A2E000C43
:10212000BB0BD09720E836E948E950E00E94521DE9
:102130004B015C01A091A8040A2E000CBB0BD097A8
:1021400020E432E44FE050E00E94521D860E971EBC
:10215000A81EB91EA091A9040A2E000CBB0BD09793
:102160000E94521D2B013C01A091AA040A2E000CD2
:10217000BB0BD09720EA36E841E050E00E94521DA8
:10218000460E571E681E791E8091B004082E000C62
:10219000990BC097092E000CAA0BBB0B480E591EB9
:1021A0006A1E7B1EA091AC040A2E000CBB0BD097BC
:1021B00020E137E20E944B1D460E571E681E791E15
:1021C000A091AD040A2E000CBB0BD09728EE33E093
:1021D0000E944B1D460E571E681E791EA091AE042C
:1021E0000A2E000CBB0BD09724E630E00E944B1D5A
:1021F000460E571E681E791EA091AF040A2E000CD1
:10220000BB0BD0972AE030E00E944B1D640D751D7A
:10221000861D971D26E030E040E050E00E940A1D38
:10222000820E931EA41EB51E8091C3048E3451F0FD
:10223000833591F5B094A09490948094811C911C66
:10224000A11CB11C811452EC95065BEEA5065BE067
:10225000B50649F18092020490920304A09204040E
:10226000B0920504B7FE1FC088279927DC018819A2
:102270009909AA09BB091DC010922A0410922B04C7
:1022800010922C0410922D0410922E0410922F0400
:10229000826080934B043BCF812C52EC952E5BEEF9
:1022A000A52E5BE0B52ED501C4018058954BA24AFE
:1022B000BA4FB0933704A0933804909339048093B5
:1022C0003A04E091F00384E0E89FF0011124E85320
:1022D000FC4F80829182A282B382A091DF040A2EF9
:1022E000000CBB0BD09720E031EE45EF55E00E948B
:1022F000521D4B015C01A091E0040A2E000CBB0BA7
:10230000D09720E836E948E950E00E94521D860E39
:10231000971EA81EB91EA091E1040A2E000CBB0B4B
:10232000D09720E432E44FE050E00E94521D860E28
:10233000971EA81EB91EA091E2040A2E000CBB0B2A
:10234000D0970E94521D2B013C01A091E3040A2E5C
:10235000000CBB0BD09720EA36E841E050E00E9429
:10236000521D460E571E681E791E8091E904082EE4
:10237000000C990BC097092E000CAA0BBB0B480E42
:10238000591E6A1E7B1EA091E5040A2E000CBB0B91
:10239000D09720E137E20E944B1D460E571E681E63
:1023A000791EA091E6040A2E000CBB0BD09728EEF4
:1023B00033E00E944B1D460E571E681E791EA091E9
:1023C000E7040A2E000CBB0BD09724E630E00E94F5
:1023D0004B1D460E571E681E791EA091E8040A2E5A
:1023E000000CBB0BD0972AE030E00E944B1D640D1F
:1023F000751D861D971D26E030E040E050E00E94EC
:102400000A1D820E931EA41EB51E8091FB04853406
:1024100059F0873509F0F3C0B094A094909480945B
:10242000811C911CA11CB11C811492EC99069BEE9D
:10243000A9069BE0B90609F4E2C00E94BB036093C1
:10244000FE037093FF03809300049093010481E0E6
:10245000809312048092060490920704A0920804CC
:10246000B0920904B7FCD5C0D501C4019B56A54460
:10247000B54FB0933B04A0933C0490933D048093EC
:102480003E0487E195E00E94C3176093F6037093C2
:10249000F7038093F8039093F90326E53EE04DEEB1
:1024A0005FE30E949E1920E030E040EA50E40E9481
:1024B000C71A20E030E040EA50E40E94381B0E9436
:1024C0002C1C20E030E04AE753E40E949E192EEFD6
:1024D0003EEE42E550E40E94381B2B013C0120E017
:1024E00030E04FE753E40E941F1C18160CF099C00F
:1024F0008FEF809335042091F003822F90E0FC0150
:10250000E254FC4F3091FB043083880F991F880FF1
:10251000991FFC01EA56FC4F80829182A282B3820D
:102520002F5F2093F0032A3051F41092F00381E0E2
:102530008093950380913604806180933604A09146
:102540009503A983AA2309F4E7C0E8ECF3E060E06F
:1025500070E0CB0120E04190519061907190411466
:10256000B2EC5B06BBEE6B06BBE07B0609F074C009
:102570002F5F40EF53E04E175F0769F7D101A21BB1
:10258000B1099D01032E000C440B550B0E942C1D1C
:1025900057FD67C029013A01B0E84B1AB5EB5B0A59
:1025A000B2EA6B0ABAEF7B0AD501C401B7FE07C0D5
:1025B00088279927DC0188199909AA09BB0981385C
:1025C0009E4FA142BA400CF45FC0FBE69F1AF5E4AF
:1025D000AF0AF5EFBF0A21E082162AE2920625E74C
:1025E000A20625E1B20608F04FC0EEEBF3E080E072
:1025F00091919534F1F19735E9F589813BC01092BD
:102600001204812C42EC942E4BEEA42E4BE0B42EFF
:1026100021CF88279927DC0188199909AA09BB09C4
:1026200028CF20E030E0A901C301B2010E941F1CA5
:1026300020E030E040E05FE387FD09C0C301B20164
:102640000E94C71A0E94AA1B6093350454CFC3018D
:10265000B2010E94C61AF6CF640D751D861D971D26
:1026600088CF442455243201421A530A640A750A59
:102670009BCFC98048EC53E04E175F0709F0B8CFF5
:10268000CC2011F081115CC0E6E9F3E060E070E07D
:10269000CB0120E081909190A190B190811452ECF7
:1026A00095065BEEA5065BE0B50609F044C02F5F1A
:1026B000AEEBB3E0AE17BF0769F7F101E21BF1091A
:1026C0009F01032E000C440B550B0E942C1D57FD3F
:1026D00077C0DA01C9019B56A544B54F7092210419
:1026E000609222045092230440922404B093250463
:1026F000A0932604909327048093280480911F04BC
:102700008F5F80931F04853618F084E680931F0442
:1027100080911F0480932904FF81F0932A04D092B2
:102720002B04E0922C04F0922D0410932E040093BD
:102730002F0487E499CB680D791D8A1D9B1DB8CFA6
:10274000E6E9F3E060E070E0CB0120E08190919059
:10275000A190B190811432EC93063BEEA3063BE0CE
:10276000B306B1F42F5FAEEBB3E0AE17BF0771F75E
:10277000F101E21BF1099F01032E000C440B550BE4
:102780000E942C1D57FF18C03B564544554F9FCF04
:10279000B7FE0BC04BE6941A45E4A40A45EFB40A11
:1027A000680D791D8A1D9B1DDECF55E9951A5AEBE0
:1027B000A50A5AE0B50AF4CF35594A4B5A4087CF9B
:1027C00088279927DC01821B930BA40BB50B86CFBE
:1027D00010921F0480914B04846080934B048FEF10
:1027E0008093210480932204809323048093240403
:1027F00080932504809326048093270480932804E3
:102800001092290480933004809331048093320421
:1028100080933304809334041092350490913604ED
:102820009072909336048093370480933804809399
:10283000390480933A0480933B0480933C04809352
:102840003D0480933E0480933F048093400471CF05
:1028500010921F04109229046CCF809110018335CF
:1028600009F004CBE091520691E080E0E91740F0D6
:10287000A92FB0E0A25DBD4F2C9182279F5FF6CFBC
:10288000F0E0E25DFD4F438162810E94570588239D
:1028900009F4E8C280914D04813009F036C280917C
:1028A0004B04816080934B0480918B048053809310
:1028B0004904809341042091200490911F04243006
:1028C00008F42DC29A3028F080914B048F7D8093BC
:1028D0004B0487EF95E00E94C3172DEC3CEC4CE4D1
:1028E0005DE30E94C71A20E030E040E251E40E941C
:1028F0009E1960931B0470931C0480931D04909395
:102900001E0420E030E04FE753E40E941F1C18161D
:1029100064F480E090E0AFE7B3E480931B0490930D
:102920001C04A0931D04B0931E0460911B047091BD
:102930001C0480911D0490911E040E94B11B6093A1
:10294000320483E196E00E94C3172DEC3CEC4CE48A
:102950005DE30E94C71A20E030E040E251E40E94AB
:102960009E19609317047093180480931904909330
:102970001A0420E030E04FE753E40E941F1C1816B1
:1029800064F480E090E0AFE7B3E4809317049093A1
:102990001804A0931904B0931A046091170470915D
:1029A00018048091190490911A040E94B11B60933D
:1029B00033048FE296E00E94C3172DEC3CEC4CE40C
:1029C0005DE30E94C71A20E030E040E251E40E943B
:1029D0009E196093130470931404809315049093CC
:1029E000160420E030E04FE753E40E941F1C181645
:1029F00064F480E090E0AFE7B3E480931304909335
:102A00001404A0931504B0931604609113047091FC
:102A1000140480911504909116040E94B11B6093D8
:102A2000340480914B0490911F049B3008F48AC1B8
:102A30008B7F80934B04109247048091120488236B
:102A400009F490C160910A0470910B0480910C0408
:102A500090910D040E943F1920E034E244E759E4CC
:102A60000E94381B4B015C01209106043091070441
:102A7000409108045091090429833A834B835C8375
:102A80008091020490910304A0910404B091050484
:102A90008F839887A987BA87BC01CD010E943F190F
:102AA00020E034E244E759E40E94381B2B013C014A
:102AB000AC019B01C501B4010E94C61A20E03CE6AE
:102AC00049ED57E40E949E196B017C01A30192011C
:102AD000C501B4010E94C71A20E030E040E05FE386
:102AE0000E949E1925E33AEF4EE85CE30E949E198E
:102AF0000E94331B4B015C0160910E0470910F0426
:102B000080911004909111040E943F1920E034E25A
:102B100044E759E40E94381B2B013C0169817A810A
:102B20008B819C810E943F1920E034E244E759E404
:102B30000E94381B9B01AC01C301B2010E94C61A5E
:102B400020E03CE649ED57E40E949E19A50194015E
:102B50000E949E199B01AC010E949E194B015C01D1
:102B6000A7019601C701B6010E949E199B01AC0105
:102B7000C501B4010E94C71A0E947A1C6B017C0136
:102B80008090FE039090FF03A0900004B090010499
:102B90008091FA039091FB03A091FC03B091FD0397
:102BA000A5019401281B390B4A0B5B0BCA01B90123
:102BB0000E943D1920E030E04AE754E40E94381BAF
:102BC0009B01AC01C701B6010E94381B6B017C015F
:102BD00026E53EE04DEE5FE36091F6037091F7036A
:102BE0008091F8039091F9030E949E1926E636E63B
:102BF00046E650E40E94381B2B013C0120E030E007
:102C000048EC52E40E949E190E94B11B709342044A
:102C10006093430420E030E048EC52E4C701B60181
:102C20000E949E190E94B11B709344046093450456
:102C300020E030E040E85FE3C701B6010E941F1CBE
:102C40001816DCF4A3019201C701B6010E94C61A4E
:102C50006B017C0120E030E0A9010E941F1C1816C6
:102C60000CF072C020E030E040EA50E4C701B60149
:102C70000E941F1C18160CF471C08092FA039092E7
:102C8000FB03A092FC03B092FD038F819885A98578
:102C9000BA8580930A0490930B04A0930C04B0931C
:102CA0000D0429813A814B815C8120930E0430937D
:102CB0000F044093100450931104809149048093B1
:102CC0004104823009F057C08091470480648093AA
:102CD00047048091F4039091F5032091F203309121
:102CE000F3032817390708F04DC0821B930B8F3F61
:102CF000910509F008F44BC08FEF80934604809152
:102D0000470480618093470447C0823021F480915A
:102D10004B048E7FC7CD833009F4C1CDC5CD8FEF75
:102D200080933204809333048093340480914B0465
:102D3000211102C08F7D03C09A30E0F7806280933A
:102D40004B046FCE846075CE20E030E040EA50EC5A
:102D5000C701B6010E94381987FF8FCF80E88093A2
:102D600047048BCF10924204109243041092440403
:102D700010924504A2CF813009F0ABCF8091470477
:102D80008062A5CFA901481B590BCA01B0CF80931F
:102D90004604059708F0B3CF3093F5032093F4036E
:102DA000C0901704D0901804E0901904F0901A0411
:102DB00020E030E048E452E4C701B6010E941F1C45
:102DC00018164CF480912004853028F48091470433
:102DD00088608093470420E030E048EC52E4609142
:102DE00013047091140480911504909116040E94AC
:102DF0001F1C1816D4F020E030E048EC52E4C70164
:102E0000B6010E941F1C181684F020E030E048EC48
:102E100052E460911B0470911C0480911D049091F8
:102E20001E040E941F1C18162CF480914704846015
:102E300080934704809136049091F1039130A9F476
:102E40008F738093360490914704292F207519F0D1
:102E50008064809336049C7A809136048F7B8068EE
:102E6000911104C08DE40C94340F806C809336046F
:102E7000F9CF61E082E00E94050361E083E00E94F7
:102E8000050361E027C810924D0442C80E94BB03AD
:102E900060934E0470934F048093500490935104B8
:102EA00080914C04811114C090914B049983892F17
:102EB00081700E944E058981869581700E9445052A
:102EC000A981A5FD15C0A2FB882780F90E943C05B9
:102ED000E0E0F0E0EF2B11F40C948E0D0E9415024F
:102EE000882311F40C948E0D0E9400000C948E0D1A
:102EF00080914A04882339F060E084E00E94050351
:102F000010924A04E5CF61E084E00E94050381E06D
:102F100080934A04DDCFF981F436C0F40C9448095B
:102F20002981213011F40C94BC0B10F40C94AD0BDE
:102F3000223011F40C94CB0B1D82F981F43610F47D
:102F40000C944809103211F40C9448092981E22E9E
:102F5000F12C612FC7010E94C70539813F5F39837A
:102F6000333711F00C9448090C9486094D8144368E
:102F700010F00C94C90B0C94DC0B833511F40C94F9
:102F8000020E0C94070E662777270C94C717B0E043
:102F9000A0E0EDECF7E10C94861A5C017B01611571
:102FA000710519F0DB018D939C9385010F5F1F4F15
:102FB000F501D0818D2F90E00E9417196C01892BAB
:102FC000B9F5DD32B9F50F5F1F4FD5011196DC91D0
:102FD000C1E05801F1E0AF1AB10843E050E068EEFB
:102FE00070E0C5010E942019892B69F5680182E013
:102FF000C80ED11C45E050E063EE70E0C6010E94AF
:103000002019892B21F4680197E0C90ED11CE11425
:10301000F10419F0D701CD92DC9260E070E080E815
:103020009FEFC111FFC060E070E080E89FE7FAC049
:103030005801BBCFDB3229F485010E5F1F4FF5012C
:10304000D181C0E0C6CF43E050E060EE70E0C50142
:103050000E942019892BE9F0F80110E000E020E03F
:1030600030E0A9015F01B0ED8B2E8D0E89E088154F
:10307000C8F19C2E689491F88C2F8870C2FF16C0FE
:10308000811102C00F5F1F4F3196D501DC91C92D10
:10309000E9CFE114F10429F00E5F1F4FF70111830E
:1030A000008360E070E080EC9FE7BCC0882311F0F3
:1030B00001501109A5E0B0E00E94751A9B01AC0116
:1030C000220F331F441F551F280D311D411D511D57
:1030D000283999E93907490799E15907A8F2C660E3
:1030E0009C2ED2CFAEEF8A1206C0C3FD3CC09C2EF0
:1030F000689493F8C9CFDF7DD534A9F580818D32EE
:1031000039F4C061DF011296818162E070E006C08F
:10311000DF018B32C1F3119661E070E080535D01F5
:10312000A61AB70A8A30F8F4E0E8CE16ECE0DE061C
:103130005CF4B601660F771F660F771FC60ED71EA9
:10314000CC0CDD1CC80ED11C5D01FFEFAF1ABF0A0D
:103150008C9180538A30A8F1C4FF03C0D194C194EC
:10316000D1080C0D1D1DC1FF09C0E114F10431F09F
:1031700081E0A81AB108D701AD92BC92CA01B90189
:103180000E943D19C370C33009F490584B015C0193
:1031900020E030E0A9010E943819882309F440C0DA
:1031A000C7E1D1E017FF05C0119501951109CFEFD7
:1031B000D0E06E01B8E1CB1AD10880E2E82EF12C04
:1031C0000FC0D501B1CFFE012591359145915491A4
:1031D0000E191F09C501B4010E949E194B015C0123
:1031E000D501C4010E151F0574F72497F594E794D3
:1031F000CC16DD06A9F78A2F880F8B2F881F8F3FEB
:1032000049F020E030E0A901C501B4010E9438195D
:10321000811106C082E290E09093FF068093FE0643
:10322000C501B401CDB7DEB7ECE00C94A21A911140
:103230000C940B1A803219F089508550C8F7089504
:10324000FB01DC014150504088F08D9181341CF02D
:103250008B350CF4805E659161341CF06B350CF499
:10326000605E861B611171F3990B0895881BFCCF7A
:103270000E947A1908F481E00895E89409C097FB48
:103280003EF490958095709561957F4F8F4F9F4F3D
:103290009923A9F0F92F96E9BB279395F695879581
:1032A00077956795B795F111F8CFFAF4BB0F11F444
:1032B00060FF1BC06F5F7F4F8F4F9F4F16C08823EB
:1032C00011F096E911C0772321F09EE8872F762F21
:1032D00005C0662371F096E8862F70E060E02AF062
:1032E0009A95660F771F881FDAF7880F969587954E
:1032F00097F90895990F0008550FAA0BE0E8FEEF23
:1033000016161706E807F907C0F012161306E407A9
:10331000F50798F0621B730B840B950B39F40A26A2
:1033200061F0232B242B252B21F408950A2609F480
:10333000A140A6958FEF811D811D08950E94B119AE
:103340000C94251A0E94171A38F00E941E1A20F0B9
:10335000952311F00C940E1A0C94141A11240C9449
:10336000591A0E94361A70F3959FC1F3950F50E0D9
:10337000551F629FF001729FBB27F00DB11D639F27
:10338000AA27F00DB11DAA1F649F6627B00DA11DCD
:10339000661F829F2227B00DA11D621F739FB00D73
:1033A000A11D621F839FA00D611D221F749F3327E3
:1033B000A00D611D231F849F600D211D822F762F7C
:1033C0006A2F11249F5750409AF0F1F088234AF059
:1033D000EE0FFF1FBB1F661F771F881F91505040C5
:1033E000A9F79E3F510580F00C940E1A0C94591ABF
:1033F0005F3FE4F3983ED4F3869577956795B7954C
:10340000F795E7959F5FC1F7FE2B880F911D969565
:10341000879597F9089599278827089597F99F67C1
:1034200080E870E060E008959FEF80EC089500244C
:103430000A941616170618060906089500240A9419
:1034400012161306140605060895092E0394000C9F
:1034500011F4882352F0BB0F40F4BF2B11F460FF2E
:1034600004C06F5F7F4F8F4F9F4F089557FD905857
:10347000440F551F59F05F3F71F04795880F97FB38
:10348000991F61F09F3F79F08795089512161306F2
:103490001406551FF2CF4695F1DF08C01616170621
:1034A0001806991FF1CF8695710561050894089556
:1034B000E894BB2766277727CB0197F90895F999F8
:1034C000FECF92BD81BDF89A992780B50895262F29
:1034D000F999FECF1FBA92BD81BD20BD0FB6F894F9
:1034E000FA9AF99A0FBE019608950E94B71AA59FFD
:1034F000900DB49F900DA49F800D911D11240895EF
:103500002F923F924F925F926F927F928F929F92F3
:10351000AF92BF92CF92DF92EF92FF920F931F93E1
:10352000CF93DF93CDB7DEB7CA1BDB0B0FB6F89492
:10353000DEBF0FBECDBF09942A88398848885F84D2
:103540006E847D848C849B84AA84B984C884DF8043
:10355000EE80FD800C811B81AA81B981CE0FD11D27
:103560000FB6F894DEBF0FBECDBFED010895A29F48
:10357000B001B39FC001A39F700D811D1124911D47
:10358000B29F700D811D1124911D08955058BB27C5
:10359000AA270E94DE1A0C94251A0E94171A38F0E6
:1035A0000E941E1A20F039F49F3F19F426F40C945F
:1035B000141A0EF4E095E7FB0C940E1AE92F0E9402
:1035C000361A58F3BA17620773078407950720F075
:1035D00079F4A6F50C94581A0EF4E0950B2EBA2F38
:1035E000A02D0B01B90190010C01CA01A001112409
:1035F000FF27591B99F0593F50F4503E68F11A16B5
:10360000F040A22F232F342F4427585FF3CF469545
:1036100037952795A795F0405395C9F77EF41F1667
:10362000BA0B620B730B840BBAF09150A1F0FF0F31
:10363000BB1F661F771F881FC2F70EC0BA0F621F1D
:10364000731F841F48F4879577956795B795F7950D
:103650009E3F08F0B0CF9395880F08F09927EE0FA2
:103660009795879508950E94E21BE3950C940B1C97
:103670000E944C1B0C94251A0E941E1A58F00E949E
:10368000171A40F029F45F3F29F00C940E1A5111DB
:103690000C94591A0C94141A0E94361A68F3992340
:1036A000B1F3552391F3951B550BBB27AA2762173E
:1036B0007307840738F09F5F5F4F220F331F441F4B
:1036C000AA1FA9F335D00E2E3AF0E0E832D091507F
:1036D0005040E695001CCAF72BD0FE2F29D0660F6C
:1036E000771F881FBB1F261737074807AB07B0E8AF
:1036F00009F0BB0B802DBF01FF2793585F4F3AF0B5
:103700009E3F510578F00C940E1A0C94591A5F3FA5
:10371000E4F3983ED4F3869577956795B795F7953A
:103720009F5FC9F7880F911D9695879597F9089522
:10373000E1E0660F771F881FBB1F621773078407BE
:10374000BA0720F0621B730B840BBA0BEE1F88F7CD
:10375000E09508950E94B11B6894B1110C94591A18
:1037600008950E943E1A88F09F5798F0B92F992724
:10377000B751B0F0E1F0660F771F881F991F1AF05C
:10378000BA95C9F714C0B13091F00E94581AB1E04F
:1037900008950C94581A672F782F8827B85F39F04E
:1037A000B93FCCF3869577956795B395D9F73EF4F5
:1037B00090958095709561957F4F8F4F9F4F08959D
:1037C0000C94141A0E943E1AD8F3E894E0E0BB2748
:1037D0009F57F0F02AED3FE049EC06C0EE0FBB0F1B
:1037E000661F771F881F28F0B23A620773078407A5
:1037F00028F0B25A620B730B840BE3959A9572F71B
:10380000803830F49A95BB0F661F771F881FD2F758
:1038100090480C94BC1CEF93E0FF07C0A2EA2AED8D
:103820003FE049EC5FEB0E94DE1A0E94251A0F90E0
:10383000039401FC9058E8E6F0E00C94F61C0E941A
:103840007A1908F48FEF089516F00C94BA1C0C94B2
:10385000141A68940C940E1A0E943E1AA8F3992325
:10386000C1F3AEF3DF93CF931F930F93FF92C92F52
:10387000DD2788232AF02197660F771F881FDAF744
:1038800020E030E040E85FEB9FE3883920F0803EA5
:1038900038F021968F770E94C71AE6E8F0E004C05E
:1038A0000E94C71AE3EBF0E00E94CF1C8B01BE011F
:1038B000EC01FB2E6F5771097595771F880B990BDB
:1038C0000E943F1928E132E741E35FE30E94B1190A
:1038D000AF2D9801AE01FF900F911F91CF91DF9115
:1038E0000E94DE1A0C94251A19F416F40C94141A7A
:1038F0000C94BA1C0E943E1AB8F39923C9F3B6F38C
:103900009F57550B87FF0E94C81C0024A0E640EA81
:10391000900180585695979528F4805C660F771F24
:10392000881F20F026173707480730F4621B730BF7
:10393000840B202931294A2BA6951794079420251A
:1039400031254A2758F7660F771F881F20F0261762
:103950003707480730F4620B730B840B200D311DC1
:10396000411DA09581F7B901842F9158880F969534
:10397000879508959F3F31F0915020F48795779572
:103980006795B795880F911D9695879597F9089536
:1039900091505040660F771F881FD2F70895DF932C
:1039A000CF931F930F93FF92EF92DF927B018C01D5
:1039B000689406C0DA2EEF010E94B119FE01E89466
:1039C000A5912591359145915591A6F3EF010E945E
:1039D000DE1AFE019701A801DA9469F7DF90EF90F3
:1039E000FF900F911F91CF91DF9108959F938F9337
:1039F0007F936F93FF93EF939B01AC010E949E19FD
:103A0000EF91FF910E94CF1C2F913F914F915F91B9
:103A10000C949E19A1E21A2EAA1BBB1BFD010DC01E
:103A2000AA1FBB1FEE1FFF1FA217B307E407F5076E
:103A300020F0A21BB30BE40BF50B661F771F881F4A
:103A4000991F1A9469F760957095809590959B01E0
:103A5000AC01BD01CF010895052E97FB1EF4009423
:103A60000E94431D57FD07D00E940A1D07FC03D08A
:103A70004EF40C94431D50954095309521953F4F41
:103A80004F4F5F4F089590958095709561957F4F4A
:103A90008F4F9F4F08950E94B71AB7FF0895821B5A
:103AA000930B0895B7FF0C94751A0E94751A821B28
:103AB000930B0895EE0FFF1F0590F491E02D0994EC
:043AC000F894FFCFA8
:103AC4002020202020202020202020202020200012
:103AD4004D202020202020202020202020202020B5
:103AE40020202020202020202020202020202020D2
:103AF40020202020202020202020202020202020C2
:103B040020202020202020202020202020202020B1
:103B140020202020202020202020202020202020A1
:103B240020202020202020202020202020400000B1
:103B34002020202020202020202020202020202081
:103B44002020202020202020202020202020202071
:103B54002020202020202020202020202020202061
:103B64002020202020202020202020202020202051
:103B74002020202020202020202020202020202041
:103B84002020202020202020202020204000002051
:103B94002020202020202020202020202020202021
:103BA4002020202020202020202020202020202011
:103BB4002020202020202020202020202020202001
:103BC40020202020202020202020202020202020F1
:103BD40020202020202020202020202020202020E1
:103BE40020202020202020202020204000002020F1
:103BF40020202020202020202020202020202020C1
:103C040020202020202020202020202020202020B0
:103C140020202020202020202020202020202020A0
:103C24002020202020202020202020202020202090
:103C34002020202020202020202020202020202080
:103C4400202020202020202020204000003230325C
:103C5400362D30392D31322E2E494E5400000000BD
:103C6400004B02AB01D80198020902E701FB0100F5
:103C74000000004104360416050C042F041C040D36
:023C840004003A
:00000001FF
