:100000000C9480000C94A8000C94A8000C94A800F8
:100010000C94A8000C94A8000C94A8000C94A800C0
:100020000C94A8000C94A8000C94A8000C94A800B0
:100030000C94A8000C94A8000C94A8000C94A800A0
:100040000C9473050C94A8000C9441050C941B05AA
:100050000C94A8000C94A8000C94A8000C94A80080
:100060000C94BD050C94A8004E414E494E4954597C
:10007000494E46CDCCCC3D0AD7233C17B7D1387773
:10008000CC2B329595E6241FB14F0A000020410089
:1000900000C84200401C4620BCBE4CCA1B0E5AAED3
:1000A000C59D7400000000240027002A0000000005
:1000B00000250028002B0000000000230026002956
:1000C0000004040404040404040202020202020301
:1000D000030303030301020408102040800102040B
:1000E000081020010204081020000000080002018E
:1000F0000000030407000000000000000000DC0610
:1001000011241FBECFEFD8E0DEBFCDBF27E0A8EFA0
:10011000B2E001C01D92A130B207E1F712E0A0E009
:10012000B1E0E8E7F0E302C005900D92A83FB10707
:10013000D9F710E0C0E8D0E004C02197FE010E948A
:100140003418CF37D107C9F70E9415070C943A1815
:100150000C940000E0919C03F0919D03309729F0EE
:10016000109299031092980309940895CF93DF9306
:10017000AC01E0919E03F0919F033097F1F09091D4
:100180009B0380919A039817C0F090E0292F30E0EC
:100190002617370754F4D901A550BD4F240F351F3A
:1001A000E90128812C939F5FF1CF10929B0360930C
:1001B0009A03CB01DF91CF910994DF91CF910895FC
:1001C000AF92BF92CF92DF92EF92FF920F931F9365
:1001D000CF93DF936C017B018B01040F151FEB01A3
:1001E0005E01AE18BF08C017D10759F06991D6015A
:1001F000ED91FC910190F081E02DC6010995892BCC
:1002000079F7C501DF91CF911F910F91FF90EF908A
:10021000DF90CF90BF90AF900895FC01538D448D37
:10022000252F30E0842F90E0821B930B541710F0A1
:10023000CF96089501970895FC01918D828D9817AE
:1002400061F0A28DAE0FBF2FB11D5D968C91928D86
:100250009F5F9F73928F90E008958FEF9FEF0895B7
:10026000FC01918D828D981731F0828DE80FF11D80
:10027000858D90E008958FEF9FEF0895FC01918D9B
:10028000228D892F90E0805C9F4F821B91098F7394
:100290009927089586E596E00E943E0121E0892B8A
:1002A00009F420E0822F089580E090E0892B29F066
:1002B0000E944A0181110C9400000895FC01A48D54
:1002C000A80FB92FB11DA35ABF4F2C91848D90E078
:1002D00001968F739927848FA689B7892C93A0895B
:1002E000B1898C91837080648C93938D848D9813E5
:1002F00006C00288F389E02D80818F7D8083089578
:10030000EF92FF920F931F93CF93DF93EC0181E065
:10031000888F9B8D8C8D98131AC0E889F98980810C
:1003200085FF15C09FB7F894EE89FF896083E8893F
:10033000F98980818370806480839FBF81E090E031
:10034000DF91CF911F910F91FF90EF900895F62EBE
:100350000B8D10E00F5F1F4F0F731127E02E8C8D58
:100360008E110CC00FB607FCFACFE889F98980819D
:1003700085FFF5CFCE010E945E01F1CFEB8DEC0F32
:10038000FD2FF11DE35AFF4FF0829FB7F8940B8FBA
:10039000EA89FB8980818062CFCFCF93DF93EC0124
:1003A000888D8823B9F0AA89BB89E889F9898C915D
:1003B00085FD03C0808186FD0DC00FB607FCF7CF19
:1003C0008C9185FFF2CF808185FFEDCFCE010E9419
:1003D0005E01E9CFDF91CF910895833081F028F459
:1003E000813099F08230A9F008958730A9F08830E3
:1003F000C9F08430B1F4809180008F7D03C080917A
:1004000080008F7780938000089584B58F7784BDB6
:10041000089584B58F7DFBCF8091B0008F77809356
:10042000B00008958091B0008F7DF9CFCF93DF9316
:10043000EFEEF0E08491EBEDF0E0D491E7ECF0E04A
:10044000C491CC23A1F081110E94ED01EC2FF0E0CA
:10045000EE0FFF1FE954FF4FA591B491EC91ED23EE
:1004600081E090E009F480E0DF91CF91089580E091
:1004700090E0FACF1F93CF93DF93282F30E0F9015C
:10048000E751FF4F8491F901EB52FF4FD491F901ED
:10049000EF53FF4FC491CC23A9F0162F81110E9476
:1004A000ED01EC2FF0E0EE0FFF1FE355FF4FA5919C
:1004B000B4918FB7F894EC91111108C0D095DE2358
:1004C000DC938FBFDF91CF911F910895DE2BF8CF82
:1004D000CF93DF9390E0FC01EB52FF4F24918F53B9
:1004E0009F4FFC0184918823D1F090E0880F991FE1
:1004F000FC01ED55FF4FA591B491FC01E355FF4F71
:10050000C591D491623071F49FB7F8943C91822FD9
:10051000809583238C93E8812E2B28839FBFDF91C6
:10052000CF9108958FB7F894EC912E2B2C938FBF19
:10053000F6CF3FB7F8948091900390919103A091EA
:100540009203B091930326B5A89B05C02F3F19F0E5
:100550000196A11DB11D3FBFBA2FA92F982F882743
:10056000BC01CD01620F711D811D911D44E0660F1C
:10057000771F881F991F4A95D1F708958F929F92F0
:10058000AF92BF92CF92DF92EF92FF924B015C014C
:100590000E9499026B017C010E9499026C197D09ED
:1005A0008E099F09683E734081059105A8F321E0FB
:1005B000821A9108A108B10888EEC80E83E0D81EFF
:1005C000E11CF11C81149104A104B10429F7FF90EE
:1005D000EF90DF90CF90BF90AF909F908F90089555
:1005E0002FB7F89460918C0370918D0380918E03E6
:1005F00090918F032FBF089520914103260F332739
:10060000331F21323105ECF420916503FC0190E0A9
:1006100080E0243069F082E00895A09141032191A7
:10062000AC014F5D5C4FA40FB52FB11D2C9301960B
:10063000861798F380914103680F6093410380E02F
:10064000089581E008951092650381E08093670327
:100650001092660361E082E10E943A0261E083E168
:100660000E943A02E9EBF0E080818E7F80838081F6
:100670008D7F80838CE08093B80085E48093BC00FC
:1006800008950895E0919B0380919A03E81730F450
:10069000F0E0E550FD4F808190E008958FEF9FEFEF
:1006A000089590919B0380919A032FEF3FEF981745
:1006B00048F4E92FF0E0E550FD4F208130E09F5FE6
:1006C00090939B03C901089580919A0390919B0395
:1006D000891B990B0895CF93DF93CB01EA01642F17
:1006E0000E94FC02CE01DF91CF910895CF93DF935A
:1006F0001F92CDB7DEB7698361E0CE0101960E94FB
:10070000FC0281E090E00F90DF91CF91089590E09E
:1007100080E0089561E084E00C943A0261E083E0B7
:100720000C943A0261E082E00C943A02CF93DF939A
:1007300080915406823330F1809154068C3310F549
:10074000C09154068FE0C89FC02D1124CE5EDFE01B
:100750008C2F90E0209154062153330BD29FA0019F
:10076000D39F500D11248417950754F489559E4F3B
:10077000FC01608183EF96E00E947603CF5FE8CFB3
:1007800010925406809154068C3330F180915406B7
:10079000863410F5C09154068FE0C89FC02D1124F7
:1007A000C458DFE08C2F90E0209154062B53330B7C
:1007B000D29FA001D39F500D11248417950754F4A4
:1007C0008A5F9D4FFC01608183EF96E00E94760373
:1007D000CF5FE8CF1092540680915406863469F4B6
:1007E000C4ECD2E0699183EF96E00E947603F2E0D8
:1007F000C33DDF07B9F710925406809154068A3042
:1008000051F44EE150E068E274E083EF96E00E941C
:100810006B031092540680915406843111F41092A7
:10082000540680915406853111F410925406DF91DC
:10083000CF9108958093A00381110C948A0360E006
:1008400084E00C943A028093A10381110C948E03EE
:1008500060E083E00C943A028093A20381110C942F
:10086000920360E082E00C943A02CF9380935406A6
:1008700090919A0380919B03981709F467C083EFC6
:1008800096E00E945103809354068091540684316F
:10089000D1F48091A2038093FA028091A103809306
:1008A000F9028091A0038093F80280E00E942C045A
:1008B00080E00E94230480E00E941A0481E080937B
:1008C0004D041092540680915406853181F4809134
:1008D000FA020E942C048091F9020E942304809164
:1008E000F8020E941A0410924D041092540680914E
:1008F0005406863171F580E00E942C0480E00E944D
:10090000230480E00E941A046CED75E080E090E022
:100910000E94BE02C1E0C093A2030E949203C09352
:10092000A1030E948E03C093A0030E948A034CE09F
:1009300050E060E071E086E596E00E94E0006CED3A
:1009400075E080E090E0CF910C94BE0210925406C6
:100950009CCFCF910895282F30E094E035952795CE
:100960009A95E1F72A3060F0295C261306C08F7053
:100970008A3040F0895C91E0481390E0892F089517
:10098000205DF3CF805DF7CFCF93DF9385ED80932C
:10099000BC0080911D0390911E03A0911F03B09194
:1009A00020030796A11DB11D23E0B695A795979545
:1009B00087952A95D1F72091BC0024FD03C01092A1
:1009C000650336C040911D0350911E0360911F03C3
:1009D00070912003452B462B472B69F30097A10507
:1009E000B10541F02AE02A95F1F700C00197A1096D
:1009F000B109E1CF80911C0391E090931B03882300
:100A0000B9F0C091B800D091BA008091BC008A7B47
:100A10008093BC0060E082E10E943A0260E083E1E2
:100A20000E943A020E942303D093BA00C093B800F8
:100A3000DF91CF9108951F920F920FB60F9211245C
:100A40002F933F934F935F936F937F938F939F93D6
:100A5000AF93BF93EF93FF9386E596E00E945E010C
:100A6000FF91EF91BF91AF919F918F917F916F9186
:100A70005F914F913F912F910F900FBE0F901F905C
:100A800018951F920F920FB60F9211242F938F93E8
:100A90009F93EF93FF93E0916606F0916706808144
:100AA000E0916C06F0916D0682FD1BC090818091F3
:100AB0006F068F5F8F7320917006821741F0E0916F
:100AC0006F06F0E0EA5AF94F958F80936F06FF9119
:100AD000EF919F918F912F910F900FBE0F901F90CC
:100AE00018958081F4CF1F920F920FB60F921124A8
:100AF0002F933F938F939F93AF93BF9380918C03DA
:100B000090918D03A0918E03B0918F0330918B0350
:100B10002CE0230F2D3758F50496A11DB11D20930D
:100B20008B0380938C0390938D03A0938E03B093DB
:100B30008F038091900390919103A0919203B091C3
:100B400093030196A11DB11D80939003909391038F
:100B5000A0939203B0939303BF91AF919F918F9114
:100B60003F912F910F900FBE0F901F9018952FE877
:100B7000230F0596A11DB11DD2CF1F920F920FB664
:100B80000F9211242F933F934F935F936F937F9313
:100B90008F939F93AF93BF93EF93FF938091B9008F
:100BA000887F803609F44AC0F0F5883209F4A7C07E
:100BB00018F5803109F49BC0B8F4882309F4F9C012
:100BC000883009F494C0FF91EF91BF91AF919F914C
:100BD0008F917F916F915F914F913F912F910F90E6
:100BE0000FBE0F901F901895883109F488C080328D
:100BF00051F78093640314C0803409F49DC040F41D
:100C00008033B9F38833F9F68093640385ECB0C080
:100C1000803509F485C0883509F496C0883499F682
:100C20000E94C404D0CF883909F48CC038F58837C5
:100C300029F050F4883611F0803729F683E080934C
:100C400065031092630357C0883809F47BC080396C
:100C500019F0803809F0B7CF80916303803208F033
:100C600071C0E091630381E08E0F809363038091F4
:100C7000BB00F0E0ED5BFC4F80833DC0803B39F072
:100C8000E0F4803A09F479C0883A09F09CCF84E016
:100C9000809365031092420310924103E091960302
:100CA000F091970309958091410381110FC081E074
:100CB000809341031092210309C0803C09F4A6CF20
:100CC000883C09F4A3CF883B09F07DCFE091420333
:100CD00081E08E0F80934203F0E0EF5DFC4F808156
:100CE0008093BB00909142038091410329C0809181
:100CF0008A038093BB0085EC8093BC0064CF909105
:100D0000890380918803981758F5E091890381E061
:100D10008E0F80938903F0E0E859FC4F8081E9CF82
:100D2000E091890381E08E0F809389038091BB005D
:100D3000F0E0E859FC4F808390918903809188030B
:100D40009817C8F285E8D8CFE091890381E08E0F2B
:100D5000809389038091BB00F0E0E859FC4F8083C9
:100D60008091670381115CCF81E08093660384EA00
:100D70008093BC001092650326CF85EC8093BC0065
:100D80001092650380916303803230F4E091630335
:100D9000F0E0ED5BFC4F10826091630370E0E09146
:100DA0009403F091950383E493E009951092630313
:100DB0000ACF1092640334CFE6E5F6E01382128284
:100DC00088EE93E0A0E0B0E084839583A683B783A8
:100DD00028ED32E03183208325EC30E0358724870D
:100DE00024EC30E03787268720EC30E0318B208BF5
:100DF00021EC30E0338B228B22EC30E0358B248BDE
:100E000026EC30E0378B268B118E128E138E148ECB
:100E1000E3EFF6E01382128284839583A683B7837F
:100E20008AEE92E0918380830895CF93DF93CDB7CC
:100E3000DEB72C970FB6F894DEBF0FBECDBF789407
:100E400084B5826084BD84B5816084BD85B58260CF
:100E500085BD85B5816085BD80916E008160809380
:100E60006E001092810080918100826080938100E9
:100E7000809180008160809380008091B1008460C7
:100E80008093B1008091B00081608093B000809128
:100E90007A00846080937A0080917A008D7F8093BD
:100EA0007A0080917A00816080937A0080917A0044
:100EB000806880937A001092C1001092C50089E189
:100EC0008093C40090E080E00E946816882339F087
:100ED000813041F060E090E080E00E947016109256
:100EE0004E0402C080934E0410929B0310929A030A
:100EF00010929903109298030E9423038AEA90E0CB
:100F0000909397038093960386EB90E090939503DC
:100F1000809394038EE28093BA0086E993E09093E5
:100F20009D0380939C0385E394E090939F038093BB
:100F30009E03E0916606F091670682E08083E0916F
:100F40006206F09163061082E0916406F0916506F6
:100F500083E3808310926E06E0916A06F0916B063F
:100F600086E08083E0916806F09169068081806167
:100F70008083E0916806F0916906808188608083B3
:100F8000E0916806F0916906808180688083E09135
:100F90006806F091690680818F7D808362E086E03B
:100FA0000E94680261E082E00E94680261E083E0E2
:100FB0000E94680261E084E00E94680261E08FE0C4
:100FC0000E94680260E08FE00E943A020E941602CE
:100FD000892B09F0ABC225E0298380E00E942C0414
:100FE00080E00E94230480E00E941A0464EF71E014
:100FF00080E090E00E94BE0231E03093A2030E94A4
:10100000920341E04093A1030E948E0351E050936C
:10101000A0030E948A0364EF71E080E090E00E94E8
:10102000BE026981615069836111D7CF0E941602A7
:10103000892B09F07BC286E596E00E94CD0146E04F
:1010400050E060EA71E086E596E00E94E00045E04D
:1010500050E06BE971E086E596E00E94E00080E0F8
:101060000E942C046CED75E080E090E00E94BE02CE
:1010700046E050E060EA71E086E596E00E94E0001C
:1010800045E050E066E971E086E596E00E94E00008
:1010900080E00E9423046CED75E080E090E00E9407
:1010A000BE0246E050E060EA71E086E596E00E940C
:1010B000E00045E050E061E971E086E596E00E94DD
:1010C000E00080E00E941A046CED75E080E090E0A2
:1010D0000E94BE0246E050E060EA71E086E596E0DC
:1010E0000E94E00045E050E06CE871E086E596E0A3
:1010F0000E94E00071E07093A2030E9492036CEDE5
:1011000075E080E090E00E94BE0246E050E060EAB8
:1011100071E086E596E00E94E00045E050E067E877
:1011200071E086E596E00E94E00081E08093A103F3
:101130000E948E036CED75E080E090E00E94BE029C
:1011400046E050E060EA71E086E596E00E94E0004B
:1011500045E050E062E871E086E596E00E94E0003C
:1011600091E09093A0030E948A036CED75E080E00B
:1011700090E00E94BE0246E050E060EA71E086E541
:1011800096E00E94E00045E050E06DE771E086E502
:1011900096E00E94E00080E00E942C046CED75E077
:1011A00080E090E00E94BE0246E050E060EA71E01C
:1011B00086E596E00E94E00045E050E068E771E0D7
:1011C00086E596E00E94E00080E00E9423046CED3A
:1011D00075E080E090E00E94BE0246E050E060EAE8
:1011E00071E086E596E00E94E00045E050E063E7AC
:1011F00071E086E596E00E94E00080E00E941A041B
:101200006CED75E080E090E00E94BE0246E050E0A8
:1012100060EA71E086E596E00E94E00045E050E07B
:101220006EE671E086E596E00E94E000A1E0A09302
:10123000A2030E9492036CED75E080E090E00E94B2
:10124000BE0246E050E060EA71E086E596E00E946A
:10125000E00045E050E069E671E086E596E00E9436
:10126000E000B1E0B093A1030E948E036CED75E045
:1012700080E090E00E94BE0246E050E060EA71E04B
:1012800086E596E00E94E00045E050E064E671E00B
:1012900086E596E00E94E000E1E0E093A0030E9472
:1012A0008A036CED75E080E090E00E94BE0246E0AB
:1012B00050E060EA71E086E596E00E94E00045E0DB
:1012C00050E06FE571E086E596E00E94E00080E086
:1012D0000E942C046CED75E080E090E00E94BE025C
:1012E00046E050E060EA71E086E596E00E94E000AA
:1012F00045E050E06AE571E086E596E00E94E00096
:1013000080E00E9423046CED75E080E090E00E9494
:10131000BE0246E050E060EA71E086E596E00E9499
:10132000E00045E050E065E571E086E596E00E946A
:10133000E00080E00E941A046CED75E080E090E02F
:101340000E94BE0246E050E060EA71E086E596E069
:101350000E94E00045E050E060E571E086E596E03F
:101360000E94E000F1E0F093A2030E9492036CED72
:1013700075E080E090E00E94BE0246E050E060EA46
:1013800071E086E596E00E94E00045E050E06BE405
:1013900071E086E596E00E94E00021E02093A10341
:1013A0000E948E036CED75E080E090E00E94BE022A
:1013B00046E050E060EA71E086E596E00E94E000D9
:1013C00045E050E066E471E086E596E00E94E000CA
:1013D00031E03093A0030E948A036CED75E080E059
:1013E00090E00E94BE0246E050E060EA71E086E5CF
:1013F00096E00E94E00045E050E06CE371E086E595
:1014000096E00E94E00080E00E942C046CED75E004
:1014100080E090E00E94BE0246E050E060EA71E0A9
:1014200086E596E00E94E00045E050E067E371E069
:1014300086E596E00E94E00080E00E9423046CEDC7
:1014400075E080E090E00E94BE0246E050E060EA75
:1014500071E086E596E00E94E00045E050E061E43E
:1014600071E086E596E00E94E00080E00E941A04A8
:101470006CED75E080E090E00E94BE0246E150E035
:1014800061E271E086E596E00E94E00041E0409371
:10149000A2030E9492036CED75E080E090E00E9450
:1014A000BE0245E150E06CE071E086E596E00E9406
:1014B000E00051E05093A1030E948E036CED75E0B3
:1014C00080E090E00E94BE0261E06093A0030E9471
:1014D0008A034CE050E060E071E086E596E00E940F
:1014E000E00071E07093A2030E94920381E0809378
:1014F000A1030E948E0391E09093A0030E948A03AF
:1015000064E670E080E090E00E94BE0280E00E940D
:101510002C0480E00E94230480E00E941A0464E806
:1015200073E080E090E00E94BE02DBCF80914C042B
:10153000876080934C04A1E0A093A2030E949203D1
:10154000B1E0B093A1030E948E03E1E0E093A00319
:101550000E948A0364EF71E080E090E00E94BE0286
:1015600084E080933B0462E370E080E090E00E94BE
:10157000BE0246E050E060EA71E086E596E00E9437
:10158000E00045E050E06BE971E086E596E00E94FE
:10159000E00080E00E942C0468E270E080E090E0CF
:1015A0000E94BE0246E050E060EA71E086E596E007
:1015B0000E94E00045E050E066E971E086E596E0D3
:1015C0000E94E00080E00E94230468E270E080E076
:1015D00090E00E94BE0246E050E060EA71E086E5DD
:1015E00096E00E94E00045E050E061E971E086E5A8
:1015F00096E00E94E00080E00E941A0468E270E039
:1016000080E090E00E94BE0246E050E060EA71E0B7
:1016100086E596E00E94E00045E050E06CE871E06D
:1016200086E596E00E94E000F1E0F093A2030E94BC
:10163000920368E270E080E090E00E94BE0246E023
:1016400050E060EA71E086E596E00E94E00045E047
:1016500050E067E871E086E596E00E94E00021E056
:101660002093A1030E948E0368E270E080E090E086
:101670000E94BE0246E050E060EA71E086E596E036
:101680000E94E00045E050E062E871E086E596E007
:101690000E94E00031E03093A0030E948A0368E2D8
:1016A00070E080E090E00E94BE0246E050E060EA18
:1016B00071E086E596E00E94E00045E050E06DE7CD
:1016C00071E086E596E00E94E00080E00E942C0434
:1016D00068E270E080E090E00E94BE0246E050E0E8
:1016E00060EA71E086E596E00E94E00045E050E0A7
:1016F00068E771E086E596E00E94E00080E00E94E5
:10170000230468E270E080E090E00E94BE0246E0C0
:1017100050E060EA71E086E596E00E94E00045E076
:1017200050E063E771E086E596E00E94E00080E02B
:101730000E941A0468E270E080E090E00E94BE021D
:1017400046E050E060EA71E086E596E00E94E00045
:1017500045E050E06EE671E086E596E00E94E0002C
:1017600041E04093A2030E94920368E270E080E0AF
:1017700090E00E94BE0246E050E060EA71E086E53B
:1017800096E00E94E00045E050E069E671E086E501
:1017900096E00E94E00051E05093A1030E948E0366
:1017A00068E270E080E090E00E94BE0246E050E017
:1017B00060EA71E086E596E00E94E00045E050E0D6
:1017C00064E671E086E596E00E94E00061E06093E7
:1017D000A0030E948A0364E170E080E090E00E9430
:1017E000BE0246E050E060EA71E086E596E00E94C5
:1017F000E00045E050E06FE571E086E596E00E948C
:10180000E00080E00E942C0468E270E080E090E05C
:101810000E94BE0246E050E060EA71E086E596E094
:101820000E94E00045E050E06AE571E086E596E060
:101830000E94E00080E00E94230468E270E080E003
:1018400090E00E94BE0246E050E060EA71E086E56A
:1018500096E00E94E00045E050E065E571E086E535
:1018600096E00E94E00080E00E941A0468E270E0C6
:1018700080E090E00E94BE0246E050E060EA71E045
:1018800086E596E00E94E00045E050E060E571E00A
:1018900086E596E00E94E00071E07093A2030E944A
:1018A000920368E270E080E090E00E94BE0246E0B1
:1018B00050E060EA71E086E596E00E94E00045E0D5
:1018C00050E06BE471E086E596E00E94E00081E084
:1018D0008093A1030E948E0368E270E080E090E0B4
:1018E0000E94BE0246E050E060EA71E086E596E0C4
:1018F0000E94E00045E050E066E471E086E596E095
:101900000E94E00091E09093A0030E948A0368E2A5
:1019100070E080E090E00E94BE0246E050E060EAA5
:1019200071E086E596E00E94E00045E050E061E469
:1019300071E086E596E00E94E00080E00E942C04C1
:1019400080E00E94230480E00E941A0460E971E0B4
:1019500080E090E00E94BE0246E050E060EA71E064
:1019600086E596E00E94E00045E050E06CE371E01F
:1019700086E596E00E94E000A1E0A093A2030E9409
:10198000920360E971E080E090E00E94BE0246E0D0
:1019900050E060EA71E086E596E00E94E00045E0F4
:1019A00050E067E371E086E596E00E94E000B1E078
:1019B000B093A1030E948E0360E971E080E090E0A3
:1019C0000E94BE0246E150E061E271E086E596E0E9
:1019D0000E94E000E1E0E093A0030E948A0360E936
:1019E00071E080E090E00E94BE025AE0252E312C8A
:1019F0001092550680915406811173C586E596E0D4
:101A00000E943E01892B09F46CC581E08093530646
:101A100080915206843239F086E596E00E941C01DE
:101A200080935206F5CF10925106809365020E9472
:101A3000F0026B017C01C0924D06D0924E06E092FE
:101A40004F06F0925006809152068D3069F10E9447
:101A5000F0026C197D098E099F096C3B724081056B
:101A6000910510F52091510629832A35E8F486E581
:101A700096E00E943E01892B31F386E596E00E94B4
:101A80001C01809352068A3219F44981409353060F
:101A900059815F5F598350935106652F70E06B59F0
:101AA0007D4FDB018C93CFCF81E080935506309141
:101AB00068023B83832F330F990B8734910509F01C
:101AC00051C080916902873441F490916A02913447
:101AD00021F41092550680934C06B0915506BC87B0
:101AE000B111FFC4E5E6F2E0FA83E98327EA31E0C9
:101AF000A6E0B2E0AF01D12C10E080E00CE1FA01E9
:101B00009191AF01FB81F73409F061C09C93E12E04
:101B1000F12C6D2D70E00E9DF0010F9DF00D112444
:101B2000EC5AFB4FE60FF71F9C3219F09A3209F07E
:101B300055C010821F5FD12C8F5F9D3029F52091F9
:101B40004C0690E030E28A3528F5FC01EA5FFD4F53
:101B5000273429F0223521F4FC01E955FE4F30836A
:101B60000196F1CF8235910509F0B7CF80916902D6
:101B70008D3409F0B2CF80916A02833409F0ADCF81
:101B80001092550682E5A7CF2F5F3F4F11968A35F9
:101B900009F0B5CF80914C06873409F004C18091DB
:101BA000A601873409F0FFC08091530481608093BF
:101BB0005304E091530691E080E0E91790F0A92FDB
:101BC000B0E0AB59BD4F2C9182279F5FF6CF6B8160
:101BD000623509F09CCFF901908399CF9083D3941B
:101BE000ABCFF0E0EB59FD4F438162810E94AB0423
:101BF00090914C04882309F42EC180914E048823CF
:101C000009F44CC0916090934C0488E195E00E94E7
:101C1000CC134B015C0184E395E00E94CC136B0173
:101C20007C01C501B4010E94AE17F0914C04FB8306
:101C300064307105ACF12DEC3CEC4CE45DE3C70184
:101C4000B6010E94D01620E030E040E251E40E944C
:101C5000A7150E94AE176B3F71052CF12B812F7DCC
:101C600020934C0480914C049091FC04903309F42F
:101C7000BAC02091180520539091190590535AE04D
:101C8000259F900D1124909339046F3F7105C9F081
:101C9000C4F09FEF90933A0484601DC09E7FB3CF41
:101CA0006FEF70E0DBCF8091CB038A3028F43B816B
:101CB000306230934C04D6CF4B814F7D40934C041F
:101CC000D1CF60933A046436710534F79091CB0319
:101CD0009B3010F38B7F80934C040091270410E01D
:101CE00080E595E00E94CC13000F111F000F111F1B
:101CF000F801ED55FC4F6083718382839383E091FB
:101D0000270464E0E69FF0011124ED55FC4F20E02C
:101D100030E04AEF53E460817181828193810E94B7
:101D2000D0160E94B51770934404609345048091C7
:101D3000CC038823A9F103EA13E060E070E0CB0153
:101D4000D8012D913D914D915D918D010E94D0164C
:101D5000EBECF3E0E017F10799F720E030E040EA20
:101D600050E40E94D01620E030E040E251E40E94AE
:101D70003C1720E030E04AEF53E40E94D0160E9466
:101D8000B51770933704609338048091CB038F5F4D
:101D9000853638F58093CB038091CB038093300454
:101DA00082E58093A60180914C06823509F08CC3B0
:101DB0008091A601823509F087C380915304826027
:101DC00080935304E091530691E080E0E91708F412
:101DD0004AC0A92FB0E0AB59BD4F2C9182279F5F1D
:101DE000F5CF84E6D7CF846080934C048FEF809347
:101DF00028048093290480932A0480932B048093E1
:101E00002C0480932D0480932E0480932F04109231
:101E100030048093370480933804109239048093FF
:101E20003A0490913B049E7F90933B0480933C0442
:101E300080933D0480933E0480933F04809340044C
:101E4000809341048093420480934304809344042C
:101E500080934504A5CF1092CB0310923004946078
:101E600090934C049DCFE090540590ED9E0D2AE098
:101E7000F090550510ED1F0D929F100D11249091BB
:101E80004C04153108F446C1FF2009F443C1B09158
:101E9000700450917104A091720440917304F09108
:101EA000740430917504609150056B836091510505
:101EB00000915205709153051093310400537053F3
:101EC000029F700D1124709332047B817053605314
:101ED000729F600D112460933304B0535053B29F2E
:101EE000500D112450933404A0534053A29F400D31
:101EF000112440933504F0533053F29F300D1124D8
:101F0000309336049D7F90934C0490913B049660EF
:101F100090933B04F0E0EB59FD4F438162810E94B6
:101F2000AB04882309F4E2C380914C0490914E04E1
:101F3000992309F4F3C08E7F80934C048091270489
:101F40008B87A82FB0E0BC83AB8380918C048D017C
:101F5000000F111F000F111F813409F077C320916A
:101F6000700420538AE0909171049053289F900D43
:101F700011249D83209172042053909173049053F7
:101F8000289F900D11249E832091740420539091DA
:101F900075049053289F900D11249F832091500524
:101FA0002053909151059053289F900D11249887AC
:101FB000209152052053909153059053289F900DE6
:101FC0001124998790ED9E0D20ED2F0D989F200DE7
:101FD00011242A87A091A8040A2E000CBB0BD097CD
:101FE00020E836E948E950E00E942C186B017C019A
:101FF000A091A9040A2E000CBB0BD09720E432E478
:102000004FE050E00E942C18C60ED71EE81EF91EA5
:10201000A091AA040A2E000CBB0BD0970E942C188A
:102020004B015C01A091AB040A2E000CBB0BD097B6
:1020300020EA36E841E050E00E942C18860E971EF8
:10204000A81EB91E8091B104082E000C990BC097F0
:10205000092E000CAA0BBB0B880E991EAA1EBB1ED4
:10206000A091AD040A2E000CBB0BD09720E137E203
:102070000E942518860E971EA81EB91EA091AE04B8
:102080000A2E000CBB0BD09728EE33E00E942518D7
:10209000860E971EA81EB91EA091AF040A2E000C32
:1020A000BB0BD09724E630E00E942518860E971EC1
:1020B000A81EB91EA091B0040A2E000CBB0BD0972D
:1020C0002AE030E00E942518680D791D8A1D9B1DAD
:1020D00026E030E040E050E00E94E417C20ED31E3C
:1020E000E41EF51E8091C4048E3451F08335C1F492
:1020F000F094E094D094C094C11CD11CE11CF11C5C
:10210000F7FE15C088279927DC018C199D09AE09B7
:10211000BF0913C0926090934C04FCCE81600CCF39
:10212000C12C22ECD22E2BEEE22E2BE0F22ED70188
:10213000C6018058954BA24ABA4FB0933C04A09375
:102140003D0490933E0480933F04F801E150FC4F1E
:10215000C082D182E282F382A091E0040A2E000CB8
:10216000BB0BD09720E031EE45EF55E00E942C18D4
:102170004B015C01A091E1040A2E000CBB0BD0972F
:1021800020E836E948E950E00E942C18860E971E98
:10219000A81EB91EA091E2040A2E000CBB0BD0971A
:1021A00020E432E44FE050E00E942C18860E971E87
:1021B000A81EB91EA091E3040A2E000CBB0BD097F9
:1021C0000E942C182B013C01A091E4040A2E000C63
:1021D000BB0BD09720EA36E841E050E00E942C1873
:1021E000460E571E681E791E8091EA04082E000CC8
:1021F000990BC097092E000CAA0BBB0B480E591E59
:102200006A1E7B1EA091E6040A2E000CBB0BD09721
:1022100020E137E20E942518460E571E681E791EDF
:10222000A091E7040A2E000CBB0BD09728EE33E0F8
:102230000E942518460E571E681E791EA091E804BC
:102240000A2E000CBB0BD09724E630E00E94251824
:10225000460E571E681E791EA091E9040A2E000C36
:10226000BB0BD0972AE030E00E942518640D751D45
:10227000861D971D26E030E040E050E00E94E41704
:10228000820E931EA41EB51E8091FC04853451F06D
:102290008735A9F4B094A09490948094811C911CEB
:1022A000A11CB11CB7FE12C0F7FE18C0F094E09458
:1022B000D094C094C11CD11CE11CF11C0FC0812C16
:1022C00092EC992E9BEEA92E9BE0B92E750164012C
:1022D000EBE6DE1AE5E4EE0AE5EFFE0AF0924004D2
:1022E000E0924104D0924204C0924304EB81FC810D
:1022F000EB50FC4F8083F801E353FC4F80829182C6
:10230000A282B382FB85FF5FF0932704FA3051F479
:102310001092270481E08093CC0380913B0481607C
:1023200080933B042091CC032B83222309F4B7C074
:10233000EFEFF3E060E070E0CB0140E0019111913C
:1023400021913191011552EC15075BEE25075BE0F9
:10235000350709F044C04F5FA7E2B4E0AE17BF07EE
:1023600069F79101241B3109032E000C440B550B16
:102370000E94061857FD38C069017A01B0E8CB1AEF
:10238000B5EBDB0AB2EAEB0ABAEFFB0AD501C401EE
:10239000B7FE07C088279927DC0188199909AA097F
:1023A000BB0981389E4FA142BA4094F1FBE69F1AC7
:1023B000F5E4AF0AF5EFBF0A21E082162AE29206A1
:1023C00025E7A20625E1B20618F5E5EFF3E080E087
:1023D0009191953489F0973589F48B810FC0600F06
:1023E000711F821F931FB8CFCC24DD247601C21A3F
:1023F000D30AE40AF50ACACF3B813C874FEF53E08A
:102400004E175F0729F75C85552311F08111DAC05B
:10241000EDECF3E060E070E0CB0140E00191119160
:10242000219131910115A2EC1A07ABEE2A07ABE01E
:102430003A0709F0C2C04F5F25EF33E02E173F0780
:1024400069F79101241B3109032E000C440B550B35
:102450000E94061857FDF2C0DA01C9019B56A54437
:10246000B54FF0922804E0922904D0922A04C09239
:102470002B04B0932C04A0932D0490932E048093EE
:102480002F048091CB038F5F8093CB03853618F0A8
:1024900084E68093CB038091CB03809330047A85CC
:1024A0007093310489858093320498859093330426
:1024B000AD81A0933404BE81B0933504EF81E093E5
:1024C000360487E48093A60180E2A981BA818D93C6
:1024D000BA83A983EFEBF2E0EA17FB07B1F710929A
:1024E000C00280915304833021F461E08FE00E94A8
:1024F0003A020E941602892B09F00CC10E94F002D8
:1025000028EE33E040E050E00E94E417643F714061
:102510008105910508F0EFC060E082E00E943A0278
:1025200060E083E00E943A0260E084E00E943A02A8
:102530000E94F00200914F04109150042091510428
:1025400030915204601B710B820B930B69387341FD
:102550008105910570F280914E04882309F4D5C05D
:1025600010924E0460E090E080E00E9470163AE025
:10257000398360E082E00E943A0262E370E080E02A
:1025800090E00E94BE0261E082E00E943A0262E3B3
:1025900070E080E090E00E94BE0249814150498392
:1025A0004111E7CF0E94F00260934F0470935004F2
:1025B00080935104909352049CCF600F711F821F2F
:1025C000931F3ACFEDECF3E0812C912C540120E0E5
:1025D00081919191A191B191811532EC93073BEEDC
:1025E000A3073BE0B307C1F42F5F45EF53E04E175D
:1025F0005F0771F7B101621B71099B01032E000C8B
:10260000440B550BC501B4010E94061857FF12C0B8
:102610003B564544554F1ECFB7FF08C09B56A544B7
:10262000B54F880E991EAA1EBB1EDFCF9559AA4B27
:10263000BA40F7CF35594A4B5A400CCF88279927D3
:10264000DC01821B930BA40BB50B0BCF1092CB03B9
:10265000F801E150FC4F20E032EC4BEE5BE02083D0
:10266000318342835383F801E353FC4F208331834A
:10267000428353831092CC0380914C0484608093F6
:102680004C048FEF809328048093290480932A04BC
:1026900080932B0480932C0480932D0480932E042C
:1026A00080932F0410923004809337048093380471
:1026B0001092390480933A0490913B049E7F90934A
:1026C0003B0480933C0480933D0480933E048093BC
:1026D0003F0480934004809341048093420480939C
:1026E00043048093440480934504EBCE1092CB03C3
:1026F00010923004E6CE61E082E00E943A0261E08E
:1027000083E00E943A0261E010CF81E080934E04A2
:1027100061E029CF0E94F00260934F04709350044F
:10272000809351049093520480914D04811114C000
:1027300050914C045983852F81700E942C0489810B
:10274000869581700E942304698165FD12C062FB39
:10275000882780F90E941A0480E090E0892B09F410
:1027600047C90E944A01882309F442C90E94000017
:102770003CC980914B04882339F060E084E00E94DA
:102780003A0210924B04E8CF61E084E00E943A02E2
:1027900081E080934B04E0CF662777270C94D01319
:1027A000B0E0A0E0E6EDF3E10C948F165C017B0154
:1027B0006115710519F0DB018D939C9385010F5F05
:1027C0001F4FF501D0818D2F90E00E9420156C01E4
:1027D000892BB9F5DD32B9F50F5F1F4FD501119681
:1027E000DC91C1E05801F1E0AF1AB10843E050E0DC
:1027F00060E770E0C5010E942915892B69F5680121
:1028000082E0C80ED11C45E050E06BE670E0C601E6
:102810000E942915892B21F4680197E0C90ED11C6B
:10282000E114F10419F0D701CD92DC9260E070E080
:1028300080E89FEFC111FFC060E070E080E89FE793
:10284000FAC05801BBCFDB3229F485010E5F1F4F60
:10285000F501D181C0E0C6CF43E050E068E670E00A
:10286000C5010E942915892BE9F0F80110E000E06C
:1028700020E030E0A9015F01B0ED8B2E8D0E89E0E4
:102880008815C8F19C2E689491F88C2F8870C2FF2F
:1028900016C0811102C00F5F1F4F3196D501DC9128
:1028A000C92DE9CFE114F10429F00E5F1F4FF701A4
:1028B0001183008360E070E080EC9FE7BCC0882358
:1028C00011F001501109A5E0B0E00E947E169B01B5
:1028D000AC01220F331F441F551F280D311D411D10
:1028E000511D283999E93907490799E15907A8F293
:1028F000C6609C2ED2CFAEEF8A1206C0C3FD3CC08C
:102900009C2E689493F8C9CFDF7DD534A9F58081DA
:102910008D3239F4C061DF011296818162E070E08E
:1029200006C0DF018B32C1F3119661E070E0805385
:102930005D01A61AB70A8A30F8F4E0E8CE16ECE09A
:10294000DE065CF4B601660F771F660F771FC60EB2
:10295000D71ECC0CDD1CC80ED11C5D01FFEFAF1AD9
:10296000BF0A8C9180538A30A8F1C4FF03C0D19470
:10297000C194D1080C0D1D1DC1FF09C0E114F10463
:1029800031F081E0A81AB108D701AD92BC92CA011A
:10299000B9010E944615C370C33009F490584B0129
:1029A0005C0120E030E0A9010E944115882309F470
:1029B00040C0CFE9D0E017FF05C01195019511097E
:1029C000C7E8D0E06E01B8E1CB1AD10880E2E82E6A
:1029D000F12C0FC0D501B1CFFE0125913591459164
:1029E00054910E191F09C501B4010E94A7154B018E
:1029F0005C01D501C4010E151F0574F72497F594E9
:102A0000E794CC16DD06A9F78A2F880F8B2F881F35
:102A10008F3F49F020E030E0A901C501B4010E94D8
:102A20004115811106C082E290E0909300078093E7
:102A3000FF06C501B401CDB7DEB7ECE00C94AB16D0
:102A400091110C941416803219F089508550C8F7F2
:102A50000895FB01DC014150504088F08D91813494
:102A60001CF08B350CF4805E659161341CF06B3585
:102A70000CF4605E861B611171F3990B0895881B3D
:102A8000FCCF0E94831508F481E00895E89409C002
:102A900097FB3EF490958095709561957F4F8F4F91
:102AA0009F4F9923A9F0F92F96E9BB279395F695A7
:102AB000879577956795B795F111F8CFFAF4BB0F25
:102AC00011F460FF1BC06F5F7F4F8F4F9F4F16C089
:102AD000882311F096E911C0772321F09EE8872F13
:102AE000762F05C0662371F096E8862F70E060E0CF
:102AF0002AF09A95660F771F881FDAF7880F969548
:102B0000879597F90895990F0008550FAA0BE0E8EB
:102B1000FEEF16161706E807F907C0F0121613069F
:102B2000E407F50798F0621B730B840B950B39F4DF
:102B30000A2661F0232B242B252B21F408950A2645
:102B400009F4A140A6958FEF811D811D08950E9473
:102B5000BA150C942E160E94201638F00E942716E3
:102B600020F0952311F00C9417160C941D161124C7
:102B70000C9462160E943F1670F3959FC1F3950F57
:102B800050E0551F629FF001729FBB27F00DB11DF1
:102B9000639FAA27F00DB11DAA1F649F6627B00D81
:102BA000A11D661F829F2227B00DA11D621F739F6A
:102BB000B00DA11D621F839FA00D611D221F749F78
:102BC0003327A00D611D231F849F600D211D822FBF
:102BD000762F6A2F11249F5750409AF0F1F08823E6
:102BE0004AF0EE0FFF1FBB1F661F771F881F915013
:102BF0005040A9F79E3F510580F00C9417160C9495
:102C000062165F3FE4F3983ED4F386957795679517
:102C1000B795F795E7959F5FC1F7FE2B880F911D3C
:102C20009695879597F9089599278827089597F994
:102C30009F6780E870E060E008959FEF80EC089562
:102C400000240A941616170618060906089500248B
:102C50000A9412161306140605060895092E039405
:102C6000000C11F4882352F0BB0F40F4BF2B11F479
:102C700060FF04C06F5F7F4F8F4F9F4F089557FDD8
:102C80009058440F551F59F05F3F71F04795880FDA
:102C900097FB991F61F09F3F79F087950895121671
:102CA00013061406551FF2CF4695F1DF08C016161D
:102CB00017061806991FF1CF8695710561050894CE
:102CC0000895E894BB2766277727CB0197F90895E5
:102CD000F999FECF92BD81BDF89A992780B50895E4
:102CE000262FF999FECF1FBA92BD81BD20BD0FB628
:102CF000F894FA9AF99A0FBE019608950E94C016A8
:102D0000A59F900DB49F900DA49F800D911D11243F
:102D100008952F923F924F925F926F927F928F927F
:102D20009F92AF92BF92CF92DF92EF92FF920F935A
:102D30001F93CF93DF93CDB7DEB7CA1BDB0B0FB664
:102D4000F894DEBF0FBECDBF09942A883988488821
:102D50005F846E847D848C849B84AA84B984C884B7
:102D6000DF80EE80FD800C811B81AA81B981CE0FAE
:102D7000D11D0FB6F894DEBF0FBECDBFED01089593
:102D8000A29FB001B39FC001A39F700D811D1124AC
:102D9000911DB29F700D811D1124911D08955058F1
:102DA000BB27AA270E94E7160C942E160E94201615
:102DB00038F00E94271620F039F49F3F19F426F4CA
:102DC0000C941D160EF4E095E7FB0C941716E92FF2
:102DD0000E943F1658F3BA176207730784079507D6
:102DE00020F079F4A6F50C9461160EF4E0950B2E04
:102DF000BA2FA02D0B01B90190010C01CA01A0014D
:102E00001124FF27591B99F0593F50F4503E68F1A7
:102E10001A16F040A22F232F342F4427585FF3CFE8
:102E2000469537952795A795F0405395C9F77EF4B9
:102E30001F16BA0B620B730B840BBAF09150A1F002
:102E4000FF0FBB1F661F771F881FC2F70EC0BA0F88
:102E5000621F731F841F48F4879577956795B79510
:102E6000F7959E3F08F0B0CF9395880F08F099270B
:102E7000EE0F9795879508950E9450170C942E1683
:102E80000E94271658F00E94201640F029F45F3F58
:102E900029F00C94171651110C9462160C941D16FF
:102EA0000E943F1668F39923B1F3552391F3951BC4
:102EB000550BBB27AA2762177307840738F09F5F5B
:102EC0005F4F220F331F441FAA1FA9F335D00E2EC8
:102ED0003AF0E0E832D091505040E695001CCAF735
:102EE0002BD0FE2F29D0660F771F881FBB1F2617F8
:102EF00037074807AB07B0E809F0BB0B802DBF01CF
:102F0000FF2793585F4F3AF09E3F510578F00C949D
:102F100017160C9462165F3FE4F3983ED4F386953F
:102F200077956795B795F7959F5FC9F7880F911DBE
:102F30009695879597F90895E1E0660F771F881FAA
:102F4000BB1F621773078407BA0720F0621B730B5D
:102F5000840BBA0BEE1F88F7E09508950E94B51711
:102F60006894B1110C94621608950E94471688F077
:102F70009F5798F0B92F9927B751B0F0E1F0660F3D
:102F8000771F881F991F1AF0BA95C9F714C0B1307E
:102F900091F00E946116B1E008950C946116672FBC
:102FA000782F8827B85F39F0B93FCCF386957795AD
:102FB0006795B395D9F73EF4909580957095619596
:102FC0007F4F8F4F9F4F0895A1E21A2EAA1BBB1B64
:102FD000FD010DC0AA1FBB1FEE1FFF1FA217B307E5
:102FE000E407F50720F0A21BB30BE40BF50B661FFB
:102FF000771F881F991F1A9469F7609570958095BF
:1030000090959B01AC01BD01CF010895052E97FB62
:103010001EF400940E941D1857FD07D00E94E4176B
:1030200007FC03D04EF40C941D1850954095309534
:1030300021953F4F4F4F5F4F089590958095709524
:1030400061957F4F8F4F9F4F08950E94C016B7FF25
:103050000895821B930B0895B7FF0C947E160E946F
:103060007E16821B930B0895EE0FFF1F0590F491BF
:08307000E02D0994F894FFCF54
:10307800B56206040400000002001068B562060983
:103088000D0000000000FFFF0000000000001731E5
:10309800BFB56206080600E803010001000139B562
:1030A80062060800000E30F00401FF18F00001FB72
:1030B80010F041003B91F10600011EF10500001CD3
:1030C800F10100FC14F00E00082BF10400FF1AF1C6
:1030D8000300FE18F10000FB12F00F00092DF00D9F
:1030E800000729F00A000423F009000321F0080072
:1030F800021FF00700011DF00600001BF00500FF8D
:1031080019F00300FD15F00200FC13F00100FB119B
:10311800B562060103005220202020202020202014
:103128002020202020202020202020202020202097
:103138002020202020202020202020202020202087
:103148002020202020202020202020202020202077
:103158002020202020202020202020202020202067
:103168002020202020202020202020202020202057
:103178002020204000002020202020202020202067
:103188002020202020202020202020202020202037
:103198002020202020202020202020202020202027
:1031A8002020202020202020202020202020202017
:1031B8002020202020202020202020202020202007
:1031C80020202020202020202020202020202020F7
:1031D8002020400000202020202020202020202007
:1031E80020202020202020202020202020202020D7
:1031F80020202020202020202020202020202020C7
:1032080020202020202020202020202020202020B6
:1032180020202020202020202020202020202020A6
:103228002020202020202020202020202020202096
:1032380020400000323032362D30352D31372E2ED9
:10324800494E5400000000008001E0000D01CD014E
:103258003E011C0130010000000076036B03870368
:0832680041036403510342031A
:00000001FF
